{"abi":[{"type":"constructor","inputs":[{"name":"_owners","type":"address[]","internalType":"address[]"},{"name":"_required","type":"uint256","internalType":"uint256"}],"stateMutability":"nonpayable"},{"type":"receive","stateMutability":"payable"},{"type":"function","name":"addOwner","inputs":[{"name":"owner","type":"address","internalType":"address"}],"outputs":[],"stateMutability":"nonpayable"},{"type":"function","name":"changeRequirement","inputs":[{"name":"_required","type":"uint256","internalType":"uint256"}],"outputs":[],"stateMutability":"nonpayable"},{"type":"function","name":"confirmTransaction","inputs":[{"name":"txId","type":"uint256","internalType":"uint256"}],"outputs":[],"stateMutability":"nonpayable"},{"type":"function","name":"confirmations","inputs":[{"name":"","type":"uint256","internalType":"uint256"},{"name":"","type":"address","internalType":"address"}],"outputs":[{"name":"","type":"bool","internalType":"bool"}],"stateMutability":"view"},{"type":"function","name":"executeTransaction","inputs":[{"name":"txId","type":"uint256","internalType":"uint256"}],"outputs":[],"stateMutability":"nonpayable"},{"type":"function","name":"getOwners","inputs":[],"outputs":[{"name":"","type":"address[]","internalType":"address[]"}],"stateMutability":"view"},{"type":"function","name":"getOwnersCount","inputs":[],"outputs":[{"name":"","type":"uint256","internalType":"uint256"}],"stateMutability":"view"},{"type":"function","name":"getPendingTransactions","inputs":[],"outputs":[{"name":"","type":"uint256[]","internalType":"uint256[]"}],"stateMutability":"view"},{"type":"function","name":"getTransaction","inputs":[{"name":"txId","type":"uint256","internalType":"uint256"}],"outputs":[{"name":"target","type":"address","internalType":"address"},{"name":"value","type":"uint256","internalType":"uint256"},{"name":"data","type":"bytes","internalType":"bytes"},{"name":"executed","type":"bool","internalType":"bool"},{"name":"confirmationsCount","type":"uint256","internalType":"uint256"},{"name":"description","type":"string","internalType":"string"},{"name":"timestamp","type":"uint256","internalType":"uint256"}],"stateMutability":"view"},{"type":"function","name":"getTransactionCount","inputs":[],"outputs":[{"name":"","type":"uint256","internalType":"uint256"}],"stateMutability":"view"},{"type":"function","name":"hasConfirmed","inputs":[{"name":"txId","type":"uint256","internalType":"uint256"},{"name":"owner","type":"address","internalType":"address"}],"outputs":[{"name":"","type":"bool","internalType":"bool"}],"stateMutability":"view"},{"type":"function","name":"isOwner","inputs":[{"name":"","type":"address","internalType":"address"}],"outputs":[{"name":"","type":"bool","internalType":"bool"}],"stateMutability":"view"},{"type":"function","name":"owners","inputs":[{"name":"","type":"uint256","internalType":"uint256"}],"outputs":[{"name":"","type":"address","internalType":"address"}],"stateMutability":"view"},{"type":"function","name":"proposeTransaction","inputs":[{"name":"target","type":"address","internalType":"address"},{"name":"value","type":"uint256","internalType":"uint256"},{"name":"data","type":"bytes","internalType":"bytes"},{"name":"description","type":"string","internalType":"string"}],"outputs":[{"name":"txId","type":"uint256","internalType":"uint256"}],"stateMutability":"nonpayable"},{"type":"function","name":"removeOwner","inputs":[{"name":"owner","type":"address","internalType":"address"}],"outputs":[],"stateMutability":"nonpayable"},{"type":"function","name":"required","inputs":[],"outputs":[{"name":"","type":"uint256","internalType":"uint256"}],"stateMutability":"view"},{"type":"function","name":"revokeConfirmation","inputs":[{"name":"txId","type":"uint256","internalType":"uint256"}],"outputs":[],"stateMutability":"nonpayable"},{"type":"function","name":"transactions","inputs":[{"name":"","type":"uint256","internalType":"uint256"}],"outputs":[{"name":"target","type":"address","internalType":"address"},{"name":"value","type":"uint256","internalType":"uint256"},{"name":"data","type":"bytes","internalType":"bytes"},{"name":"executed","type":"bool","internalType":"bool"},{"name":"confirmations","type":"uint256","internalType":"uint256"},{"name":"description","type":"string","internalType":"string"},{"name":"timestamp","type":"uint256","internalType":"uint256"}],"stateMutability":"view"},{"type":"event","name":"ConfirmationRevoked","inputs":[{"name":"txId","type":"uint256","indexed":true,"internalType":"uint256"},{"name":"owner","type":"address","indexed":true,"internalType":"address"}],"anonymous":false},{"type":"event","name":"OwnerAdded","inputs":[{"name":"owner","type":"address","indexed":true,"internalType":"address"}],"anonymous":false},{"type":"event","name":"OwnerRemoved","inputs":[{"name":"owner","type":"address","indexed":true,"internalType":"address"}],"anonymous":false},{"type":"event","name":"RequirementChanged","inputs":[{"name":"required","type":"uint256","indexed":false,"internalType":"uint256"}],"anonymous":false},{"type":"event","name":"TransactionConfirmed","inputs":[{"name":"txId","type":"uint256","indexed":true,"internalType":"uint256"},{"name":"owner","type":"address","indexed":true,"internalType":"address"}],"anonymous":false},{"type":"event","name":"TransactionExecuted","inputs":[{"name":"txId","type":"uint256","indexed":true,"internalType":"uint256"},{"name":"executor","type":"address","indexed":true,"internalType":"address"}],"anonymous":false},{"type":"event","name":"TransactionProposed","inputs":[{"name":"txId","type":"uint256","indexed":true,"internalType":"uint256"},{"name":"proposer","type":"address","indexed":true,"internalType":"address"},{"name":"target","type":"address","indexed":true,"internalType":"address"},{"name":"value","type":"uint256","indexed":false,"internalType":"uint256"},{"name":"data","type":"bytes","indexed":false,"internalType":"bytes"},{"name":"description","type":"string","indexed":false,"internalType":"string"}],"anonymous":false},{"type":"event","name":"TransactionRejected","inputs":[{"name":"txId","type":"uint256","indexed":true,"internalType":"uint256"}],"anonymous":false},{"type":"error","name":"CannotExecuteTransaction","inputs":[]},{"type":"error","name":"InvalidAddress","inputs":[]},{"type":"error","name":"InvalidRequirement","inputs":[]},{"type":"error","name":"NotOwner","inputs":[]},{"type":"error","name":"OwnerAlreadyExists","inputs":[]},{"type":"error","name":"OwnerDoesNotExist","inputs":[]},{"type":"error","name":"TransactionAlreadyConfirmed","inputs":[]},{"type":"error","name":"TransactionAlreadyExecuted","inputs":[]},{"type":"error","name":"TransactionDoesNotExist","inputs":[]},{"type":"error","name":"TransactionFailed","inputs":[]},{"type":"error","name":"TransactionNotConfirmed","inputs":[]}],"bytecode":{"object":"0x6080604052346101e7576116e680380380610019816101eb565b9283398101906040818303126101e75780516001600160401b0381116101e757810182601f820112156101e7578051926001600160401b038411610169578360051b9160208061006a8186016101eb565b8097815201938201019182116101e757602001915b8183106101c757846020850151908051156101ae57811580156101bd575b6101ae575f5b815181101561019b57600581901b8201602001516001600160a01b031690811561018c57815f52600160205260ff60405f20541661017d57815f52600160205260405f20600160ff198254161790555f5491680100000000000000008310156101695760018301805f55831015610155575f80527f290decd9548b62a8d60345a988386fc84ba6bc95484008f6362f93160ef3e56390920180546001600160a01b0319169092179091556001016100a3565b634e487b7160e01b5f52603260045260245ffd5b634e487b7160e01b5f52604160045260245ffd5b63481ededf60e11b5f5260045ffd5b63e6c4247b60e01b5f5260045ffd5b826002556040516114d590816102118239f35b6327c97a1360e21b5f5260045ffd5b508051821161009d565b82516001600160a01b03811681036101e75781526020928301920161007f565b5f80fd5b6040519190601f01601f191682016001600160401b038111838210176101695760405256fe6080604052600436101561001a575b3615610018575f80fd5b005b5f3560e01c8063025e7c271461117d57806308aff93314610e40578063173825d91461103157806320ea8d8614610f575780632e7700f014610f3a5780632f54bf6e14610efd57806333ea3dc814610e895780633411c81c14610e405780637065cb4814610d5b57806373ff81cc14610d3f5780639ace38c214610cc7578063a0e67e2b14610c01578063ba51a6df14610b8f578063c01a8c84146109c6578063c074a27e146103d5578063d11db83f146102aa578063dc8452cd1461028d5763ee22610b0361000e573461028957602036600319011261028957600435335f52600160205260ff60405f2054161561027a5760035481101561026b5760ff600361012483611274565b5001541661025c5761013581611274565b5060048101546002541161024d5760038101600160ff1982541617905560018060a01b038154169060026001820154910190604051915f9080549061017982611290565b91600181169081156102365750600114610204575b5050915f939181859403925af13d156101ff573d6101ab816113b8565b906101b960405192836112c8565b81525f60203d92013e5b156101f05733907fefc13bdcf58f184ea7cae26b499fb33b539e01d0197cea456f3ada289b8cf19b5f80a3005b6317f2c34560e31b5f5260045ffd5b6101c3565b9091505f5260205f205f905b8282106102225750508201818361018e565b600181602092548488015201910190610210565b60ff1916865250508015150283019050818361018e565b63962618f160e01b5f5260045ffd5b63db5e659b60e01b5f5260045ffd5b6315147c4560e21b5f5260045ffd5b6330cd747160e01b5f5260045ffd5b5f80fd5b34610289575f366003190112610289576020600254604051908152f35b34610289575f366003190112610289575f5f600354905b8181106103a257506102eb6102d583611487565b926102e360405194856112c8565b808452611487565b602083019190601f19013683375f905f5b818110610347578385604051918291602083019060208452518091526040830191905f5b81811061032e575050500390f35b8251845285945060209384019390920191600101610320565b60ff600361035483611274565b5001541615610366575b6001016102fc565b91845181101561038e576103868184602060019460051b89010152611479565b92905061035e565b634e487b7160e01b5f52603260045260245ffd5b60ff60036103af83611274565b50015416156103c1575b6001016102c1565b916103cd600191611479565b9290506103b9565b34610289576080366003190112610289576103ee6111ea565b6024359060443567ffffffffffffffff81116102895761041290369060040161138a565b9060643567ffffffffffffffff81116102895761043390369060040161138a565b939092335f52600160205260ff60405f2054161561027a57600354956040519260e0840184811067ffffffffffffffff82111761093c576040526001600160a01b03168084526020840182815290969093886104903686896113d4565b60408301908152606083015f815260808401915f83526104b136878d6113d4565b9860a08601998a52600160401b60c0870195428752101561093c576104dc8e60018101600355611274565b9690966109b3575186546001600160a01b0319166001600160a01b0391909116178655516001860155518051600286019167ffffffffffffffff821161093c576105308261052a8554611290565b8561140a565b602090601f83116001146109505761055f92915f9183610880575b50508160011b915f199060031b1c19161790565b90555b600384019051151560ff8019835416911617905551600483015560058201955195865167ffffffffffffffff811161093c578b976105a48261052a8554611290565b602090601f831160011461088b57937f7edda5e5cff62b85d81ecbd4cba013941665754d207da51693381a17cad1eaf9999a9361060284610632999895600695610622995f926108805750508160011b915f199060031b1c19161790565b90555b519101556040519586958652606060208701526060860191611459565b9083820360408501523397611459565b0390a4335f52600160205260ff60405f2054161561027a5760035481101561026b5760ff600361066183611274565b5001541661025c575f81815260046020908152604080832033845290915290205460ff16610871575f818152600460208181526040808420338552909152909120805460ff191660011790556106b682611274565b50018054906001820180921161085d575533817f15c2f311c9e0f53b50388279894aeff029a3457884a6601e924fca879e12adcc5f80a360046106f882611274565b50015460025480911015610712575b602082604051908152f35b335f52600160205260ff60405f2054161561027a5760035482101561026b5760ff600361073e84611274565b5001541661025c5761074f82611274565b509060048201541061024d5760038101600160ff1982541617905560018060a01b038154169060026001820154910190604051915f9080549061079182611290565b91600181169081156108465750600114610814575b5050915f939181859403925af13d1561080f573d6107c3816113b8565b906107d160405192836112c8565b81525f60203d92013e5b156101f05760209033817fefc13bdcf58f184ea7cae26b499fb33b539e01d0197cea456f3ada289b8cf19b5f80a390610707565b6107db565b9091505f5260205f205f905b828210610832575050820181836107a6565b600181602092548488015201910190610820565b60ff191686525050801515028301905081836107a6565b634e487b7160e01b5f52601160045260245ffd5b634203265760e01b5f5260045ffd5b015190505f8061054b565b999493929190601f1982169a835f52815f209b5f5b81811061090a5750837f7edda5e5cff62b85d81ecbd4cba013941665754d207da51693381a17cad1eaf99c9d6106329a999794610622999794600697600195106108f2575b505050811b019055610605565b01515f1960f88460031b161c191690555f80806108e5565b939597999b509091939597999b6020600181928786015181550195019301908f9b9997959392919c9a9896949c6108a0565b634e487b7160e01b5f52604160045260245ffd5b90601f19831691845f52815f20925f5b81811061099b5750908460019594939210610983575b505050811b019055610562565b01515f1960f88460031b161c191690558f8080610976565b92936020600181928786015181550195019301610960565b634e487b7160e01b5f525f60045260245ffd5b3461028957602036600319011261028957600435335f52600160205260ff60405f2054161561027a5760035481101561026b5760ff6003610a0683611274565b5001541661025c575f81815260046020908152604080832033845290915290205460ff16610871575f818152600460208181526040808420338552909152909120805460ff19166001179055610a5b82611274565b50018054906001820180921161085d575533817f15c2f311c9e0f53b50388279894aeff029a3457884a6601e924fca879e12adcc5f80a36004610a9d82611274565b50015460025480911015610aad57005b335f52600160205260ff60405f2054161561027a5760035482101561026b5760ff6003610ad984611274565b5001541661025c57610aea82611274565b509060048201541061024d5760038101600160ff1982541617905560018060a01b038154169060026001820154910190604051915f90805490610b2c82611290565b91600181169081156102365750600114610b5d575050915f939181859403925af13d156101ff573d6101ab816113b8565b9091505f5260205f205f905b828210610b7b5750508201818361018e565b600181602092548488015201910190610b69565b346102895760203660031901126102895760043530330361027a5780158015610bf7575b610be8576020817facbdb084c721332ac59f9b8e392196c9eb0e4932862da8eb9beaf0dad4f550da92600255604051908152a1005b6327c97a1360e21b5f5260045ffd5b505f548111610bb3565b34610289575f366003190112610289576040518060205f54928381520180925f80527f290decd9548b62a8d60345a988386fc84ba6bc95484008f6362f93160ef3e563905f5b818110610ca85750505081610c5d9103826112c8565b604051918291602083019060208452518091526040830191905f5b818110610c86575050500390f35b82516001600160a01b0316845285945060209384019390920191600101610c78565b82546001600160a01b0316845260209093019260019283019201610c47565b346102895760203660031901126102895760043560035481101561028957610cee90611274565b5060018060a01b03815416610d3b600183015492610d0e600282016112ea565b9060ff6003820154166004820154906006610d2b600585016112ea565b9301549360405197889788611224565b0390f35b34610289575f3660031901126102895760205f54604051908152f35b3461028957602036600319011261028957610d746111ea565b30330361027a576001600160a01b038116908115610e3157815f52600160205260ff60405f205416610e2257815f52600160205260405f20600160ff198254161790555f5490600160401b82101561093c57610dd8826001610dfc94015f556111be565b81546001600160a01b0393841660039290921b91821b9390911b1916919091179055565b7f994a936646fe87ffe4f1e469d3d6aa417d6b855598397f323de5b449f765f0c35f80a2005b63481ededf60e11b5f5260045ffd5b63e6c4247b60e01b5f5260045ffd5b3461028957604036600319011261028957610e596111d4565b6004355f52600460205260405f209060018060a01b03165f52602052602060ff60405f2054166040519015158152f35b346102895760203660031901126102895760043560035481101561026b57610eb090611274565b5060018060a01b03815416610d3b60018301549260ff600382015416906004810154600682015492610ef06005610ee9600286016112ea565b94016112ea565b9260405197889788611224565b34610289576020366003190112610289576001600160a01b03610f1e6111ea565b165f526001602052602060ff60405f2054166040519015158152f35b34610289575f366003190112610289576020600354604051908152f35b3461028957602036600319011261028957600435335f52600160205260ff60405f2054161561027a5760035481101561026b5760ff6003610f9783611274565b5001541661025c575f81815260046020908152604080832033845290915290205460ff1615611023575f818152600460208181526040808420338552909152909120805460ff19169055610fea82611274565b500180545f1981019190821161085d575533907fdd7f1999a4389ea99f79c84df2162a8e32e72dd35838b19e4094bf0357c1b62e5f80a3005b623f6b1f60ea1b5f5260045ffd5b346102895760203660031901126102895761104a6111ea565b30330361027a576001600160a01b03165f8181526001602052604090205460ff161561116e575f545f19810190811161085d5760025411610be8575f818152600160205260408120805460ff191690555b5f54908181101561116757826110b0826111be565b905460039190911b1c6001600160a01b0316146110d157600191500161109b565b5f19820191821161085d57610dd86110eb611103936111be565b905460039190911b1c6001600160a01b0316916111be565b5f548015611153575f1901611117816111be565b81549060018060a01b039060031b1b191690555f555b7f58619076adf5bb0943d100ef88d52d7c3fd691b19d3a9071b555b651fbf418da5f80a2005b634e487b7160e01b5f52603160045260245ffd5b505061112d565b635eb8255760e11b5f5260045ffd5b34610289576020366003190112610289576004355f54811015610289576111a56020916111be565b905460405160039290921b1c6001600160a01b03168152f35b5f5481101561038e575f805260205f2001905f90565b602435906001600160a01b038216820361028957565b600435906001600160a01b038216820361028957565b805180835260209291819084018484015e5f828201840152601f01601f1916010190565b9796959161126f94936112559160c0979360018060a01b03168b5260208b015260e060408b015260e08a0190611200565b9215156060890152608088015286820360a0880152611200565b930152565b60035481101561038e5760035f52600760205f20910201905f90565b90600182811c921680156112be575b60208310146112aa57565b634e487b7160e01b5f52602260045260245ffd5b91607f169161129f565b90601f8019910116810190811067ffffffffffffffff82111761093c57604052565b9060405191825f8254926112fd84611290565b80845293600181169081156113685750600114611324575b50611322925003836112c8565b565b90505f9291925260205f20905f915b81831061134c575050906020611322928201015f611315565b6020919350806001915483858901015201910190918492611333565b90506020925061132294915060ff191682840152151560051b8201015f611315565b9181601f840112156102895782359167ffffffffffffffff8311610289576020838186019501011161028957565b67ffffffffffffffff811161093c57601f01601f191660200190565b9291926113e0826113b8565b916113ee60405193846112c8565b829481845281830111610289578281602093845f960137010152565b601f821161141757505050565b5f5260205f20906020601f840160051c8301931061144f575b601f0160051c01905b818110611444575050565b5f8155600101611439565b9091508190611430565b908060209392818452848401375f828201840152601f01601f1916010190565b5f19811461085d5760010190565b67ffffffffffffffff811161093c5760051b6020019056fea264697066735822122061dac7aabe158e1ccb4311843caa547b357f06986fc5b32a8981c95321a3f96564736f6c634300081b0033","linkReferences":{}},"methodIdentifiers":{"addOwner(address)":"7065cb48","changeRequirement(uint256)":"ba51a6df","confirmTransaction(uint256)":"c01a8c84","confirmations(uint256,address)":"3411c81c","executeTransaction(uint256)":"ee22610b","getOwners()":"a0e67e2b","getOwnersCount()":"73ff81cc","getPendingTransactions()":"d11db83f","getTransaction(uint256)":"33ea3dc8","getTransactionCount()":"2e7700f0","hasConfirmed(uint256,address)":"08aff933","isOwner(address)":"2f54bf6e","owners(uint256)":"025e7c27","proposeTransaction(address,uint256,bytes,string)":"c074a27e","removeOwner(address)":"173825d9","required()":"dc8452cd","revokeConfirmation(uint256)":"20ea8d86","transactions(uint256)":"9ace38c2"},"id":74}