{"abi":[{"type":"constructor","inputs":[],"stateMutability":"nonpayable"},{"type":"receive","stateMutability":"payable"},{"type":"function","name":"DOMAIN_SEPARATOR","inputs":[],"outputs":[{"name":"","type":"bytes32","internalType":"bytes32"}],"stateMutability":"view"},{"type":"function","name":"UPGRADE_INTERFACE_VERSION","inputs":[],"outputs":[{"name":"","type":"string","internalType":"string"}],"stateMutability":"view"},{"type":"function","name":"aavePool","inputs":[],"outputs":[{"name":"","type":"address","internalType":"contract IPool"}],"stateMutability":"view"},{"type":"function","name":"addCheckToWithdrawal","inputs":[{"name":"operationId","type":"uint256","internalType":"uint256"},{"name":"date","type":"uint64","internalType":"uint64"},{"name":"fn","type":"uint64","internalType":"uint64"},{"name":"fd","type":"uint32","internalType":"uint32"},{"name":"fpd","type":"uint32","internalType":"uint32"}],"outputs":[],"stateMutability":"nonpayable"},{"type":"function","name":"allowance","inputs":[{"name":"owner","type":"address","internalType":"address"},{"name":"spender","type":"address","internalType":"address"}],"outputs":[{"name":"","type":"uint256","internalType":"uint256"}],"stateMutability":"view"},{"type":"function","name":"approve","inputs":[{"name":"spender","type":"address","internalType":"address"},{"name":"value","type":"uint256","internalType":"uint256"}],"outputs":[{"name":"","type":"bool","internalType":"bool"}],"stateMutability":"nonpayable"},{"type":"function","name":"balanceOf","inputs":[{"name":"account","type":"address","internalType":"address"}],"outputs":[{"name":"","type":"uint256","internalType":"uint256"}],"stateMutability":"view"},{"type":"function","name":"checks","inputs":[{"name":"hashCheck","type":"bytes32","internalType":"bytes32"}],"outputs":[{"name":"date","type":"uint64","internalType":"uint64"},{"name":"fn","type":"uint64","internalType":"uint64"},{"name":"fd","type":"uint32","internalType":"uint32"},{"name":"fpd","type":"uint32","internalType":"uint32"}],"stateMutability":"view"},{"type":"function","name":"confirmWithdrawal","inputs":[{"name":"operationId","type":"uint256","internalType":"uint256"}],"outputs":[],"stateMutability":"nonpayable"},{"type":"function","name":"convertEthToProtectedAsset","inputs":[{"name":"minAmountOut","type":"uint256","internalType":"uint256"}],"outputs":[],"stateMutability":"nonpayable"},{"type":"function","name":"decimals","inputs":[],"outputs":[{"name":"","type":"uint8","internalType":"uint8"}],"stateMutability":"view"},{"type":"function","name":"depegThreshold","inputs":[],"outputs":[{"name":"","type":"uint256","internalType":"uint256"}],"stateMutability":"view"},{"type":"function","name":"donation","inputs":[],"outputs":[],"stateMutability":"payable"},{"type":"function","name":"eip712Domain","inputs":[],"outputs":[{"name":"fields","type":"bytes1","internalType":"bytes1"},{"name":"name","type":"string","internalType":"string"},{"name":"version","type":"string","internalType":"string"},{"name":"chainId","type":"uint256","internalType":"uint256"},{"name":"verifyingContract","type":"address","internalType":"address"},{"name":"salt","type":"bytes32","internalType":"bytes32"},{"name":"extensions","type":"uint256[]","internalType":"uint256[]"}],"stateMutability":"view"},{"type":"function","name":"evacuateIfDepegged","inputs":[{"name":"evacuationMinReturn","type":"uint256","internalType":"uint256"},{"name":"flashLoanAmount","type":"uint256","internalType":"uint256"},{"name":"manipulationMinReturn","type":"uint256","internalType":"uint256"},{"name":"simpleSwapMinReturn","type":"uint256","internalType":"uint256"}],"outputs":[],"stateMutability":"nonpayable"},{"type":"function","name":"evacuating","inputs":[],"outputs":[{"name":"","type":"bool","internalType":"bool"}],"stateMutability":"view"},{"type":"function","name":"executeOperation","inputs":[{"name":"asset","type":"address","internalType":"address"},{"name":"amount","type":"uint256","internalType":"uint256"},{"name":"premium","type":"uint256","internalType":"uint256"},{"name":"initiator","type":"address","internalType":"address"},{"name":"params","type":"bytes","internalType":"bytes"}],"outputs":[{"name":"","type":"bool","internalType":"bool"}],"stateMutability":"nonpayable"},{"type":"function","name":"getReceiptHash","inputs":[{"name":"_fn","type":"uint64","internalType":"uint64"},{"name":"_fd","type":"uint32","internalType":"uint32"},{"name":"_fpd","type":"uint32","internalType":"uint32"}],"outputs":[{"name":"","type":"bytes32","internalType":"bytes32"}],"stateMutability":"pure"},{"type":"function","name":"getUnconfirmedOperationsCount","inputs":[],"outputs":[{"name":"","type":"uint256","internalType":"uint256"}],"stateMutability":"view"},{"type":"function","name":"getWithdrawalCheckAtIndex","inputs":[{"name":"operationId","type":"uint256","internalType":"uint256"},{"name":"index","type":"uint256","internalType":"uint256"}],"outputs":[{"name":"","type":"bytes32","internalType":"bytes32"}],"stateMutability":"view"},{"type":"function","name":"getWithdrawalChecksCount","inputs":[{"name":"operationId","type":"uint256","internalType":"uint256"}],"outputs":[{"name":"","type":"uint256","internalType":"uint256"}],"stateMutability":"view"},{"type":"function","name":"initialize","inputs":[{"name":"name","type":"string","internalType":"string"},{"name":"symbol","type":"string","internalType":"string"},{"name":"initialOwner","type":"address","internalType":"address"},{"name":"_aavePool","type":"address","internalType":"address"},{"name":"_priceOracle","type":"address","internalType":"address"},{"name":"_protectedAsset","type":"address","internalType":"address"},{"name":"_safeAssetPriceOracle","type":"address","internalType":"address"},{"name":"_safeAsset","type":"address","internalType":"address"},{"name":"_depegThreshold","type":"uint256","internalType":"uint256"},{"name":"_router","type":"address","internalType":"address"},{"name":"_permit2","type":"address","internalType":"address"}],"outputs":[],"stateMutability":"nonpayable"},{"type":"function","name":"initializeV2","inputs":[{"name":"_router","type":"address","internalType":"address"},{"name":"_permit2","type":"address","internalType":"address"}],"outputs":[],"stateMutability":"nonpayable"},{"type":"function","name":"name","inputs":[],"outputs":[{"name":"","type":"string","internalType":"string"}],"stateMutability":"view"},{"type":"function","name":"nonces","inputs":[{"name":"owner","type":"address","internalType":"address"}],"outputs":[{"name":"","type":"uint256","internalType":"uint256"}],"stateMutability":"view"},{"type":"function","name":"owner","inputs":[],"outputs":[{"name":"","type":"address","internalType":"address"}],"stateMutability":"view"},{"type":"function","name":"permit","inputs":[{"name":"owner","type":"address","internalType":"address"},{"name":"spender","type":"address","internalType":"address"},{"name":"value","type":"uint256","internalType":"uint256"},{"name":"deadline","type":"uint256","internalType":"uint256"},{"name":"v","type":"uint8","internalType":"uint8"},{"name":"r","type":"bytes32","internalType":"bytes32"},{"name":"s","type":"bytes32","internalType":"bytes32"}],"outputs":[],"stateMutability":"nonpayable"},{"type":"function","name":"permit2","inputs":[],"outputs":[{"name":"","type":"address","internalType":"contract IPermit2"}],"stateMutability":"view"},{"type":"function","name":"priceOracle","inputs":[],"outputs":[{"name":"","type":"address","internalType":"contract AggregatorV3Interface"}],"stateMutability":"view"},{"type":"function","name":"protectedAsset","inputs":[],"outputs":[{"name":"","type":"address","internalType":"contract IERC20"}],"stateMutability":"view"},{"type":"function","name":"proxiableUUID","inputs":[],"outputs":[{"name":"","type":"bytes32","internalType":"bytes32"}],"stateMutability":"view"},{"type":"function","name":"renounceOwnership","inputs":[],"outputs":[],"stateMutability":"nonpayable"},{"type":"function","name":"router","inputs":[],"outputs":[{"name":"","type":"address","internalType":"contract IUniversalRouter"}],"stateMutability":"view"},{"type":"function","name":"safeAsset","inputs":[],"outputs":[{"name":"","type":"address","internalType":"contract IERC20"}],"stateMutability":"view"},{"type":"function","name":"safeAssetPriceOracle","inputs":[],"outputs":[{"name":"","type":"address","internalType":"contract AggregatorV3Interface"}],"stateMutability":"view"},{"type":"function","name":"setDepegThreshold","inputs":[{"name":"_newDepeg","type":"uint256","internalType":"uint256"}],"outputs":[],"stateMutability":"nonpayable"},{"type":"function","name":"setSafeAsset","inputs":[{"name":"newSafeAsset","type":"address","internalType":"address"}],"outputs":[],"stateMutability":"nonpayable"},{"type":"function","name":"symbol","inputs":[],"outputs":[{"name":"","type":"string","internalType":"string"}],"stateMutability":"view"},{"type":"function","name":"totalSupply","inputs":[],"outputs":[{"name":"","type":"uint256","internalType":"uint256"}],"stateMutability":"view"},{"type":"function","name":"transfer","inputs":[{"name":"to","type":"address","internalType":"address"},{"name":"value","type":"uint256","internalType":"uint256"}],"outputs":[{"name":"","type":"bool","internalType":"bool"}],"stateMutability":"nonpayable"},{"type":"function","name":"transferFrom","inputs":[{"name":"from","type":"address","internalType":"address"},{"name":"to","type":"address","internalType":"address"},{"name":"value","type":"uint256","internalType":"uint256"}],"outputs":[{"name":"","type":"bool","internalType":"bool"}],"stateMutability":"nonpayable"},{"type":"function","name":"transferOwnership","inputs":[{"name":"newOwner","type":"address","internalType":"address"}],"outputs":[],"stateMutability":"nonpayable"},{"type":"function","name":"transferWithPermit","inputs":[{"name":"owner","type":"address","internalType":"address"},{"name":"spender","type":"address","internalType":"address"},{"name":"value","type":"uint256","internalType":"uint256"},{"name":"deadline","type":"uint256","internalType":"uint256"},{"name":"v","type":"uint8","internalType":"uint8"},{"name":"r","type":"bytes32","internalType":"bytes32"},{"name":"s","type":"bytes32","internalType":"bytes32"}],"outputs":[{"name":"","type":"bool","internalType":"bool"}],"stateMutability":"nonpayable"},{"type":"function","name":"unconfirmedOperations","inputs":[{"name":"","type":"uint256","internalType":"uint256"}],"outputs":[{"name":"","type":"uint256","internalType":"uint256"}],"stateMutability":"view"},{"type":"function","name":"upgradeToAndCall","inputs":[{"name":"newImplementation","type":"address","internalType":"address"},{"name":"data","type":"bytes","internalType":"bytes"}],"outputs":[],"stateMutability":"payable"},{"type":"function","name":"version","inputs":[],"outputs":[{"name":"","type":"string","internalType":"string"}],"stateMutability":"pure"},{"type":"function","name":"withdrawalCount","inputs":[],"outputs":[{"name":"","type":"uint256","internalType":"uint256"}],"stateMutability":"view"},{"type":"function","name":"withdrawalOperations","inputs":[{"name":"id","type":"uint256","internalType":"uint256"}],"outputs":[{"name":"amount","type":"uint256","internalType":"uint256"},{"name":"recipient","type":"address","internalType":"address"},{"name":"offchain","type":"bool","internalType":"bool"},{"name":"timestamp","type":"uint256","internalType":"uint256"}],"stateMutability":"view"},{"type":"function","name":"withdrawalProtectedAsset","inputs":[{"name":"recipient","type":"address","internalType":"address"},{"name":"amount","type":"uint256","internalType":"uint256"},{"name":"offchain","type":"bool","internalType":"bool"},{"name":"decription","type":"string","internalType":"string"}],"outputs":[],"stateMutability":"nonpayable"},{"type":"event","name":"AddCheckToWithdrawal","inputs":[{"name":"operationId","type":"uint256","indexed":true,"internalType":"uint256"},{"name":"date","type":"uint64","indexed":false,"internalType":"uint64"},{"name":"fn","type":"uint64","indexed":false,"internalType":"uint64"},{"name":"fd","type":"uint32","indexed":false,"internalType":"uint32"},{"name":"fpd","type":"uint32","indexed":false,"internalType":"uint32"}],"anonymous":false},{"type":"event","name":"Approval","inputs":[{"name":"owner","type":"address","indexed":true,"internalType":"address"},{"name":"spender","type":"address","indexed":true,"internalType":"address"},{"name":"value","type":"uint256","indexed":false,"internalType":"uint256"}],"anonymous":false},{"type":"event","name":"AssetsEvacuated","inputs":[{"name":"amountIn","type":"uint256","indexed":false,"internalType":"uint256"},{"name":"amountOut","type":"uint256","indexed":false,"internalType":"uint256"}],"anonymous":false},{"type":"event","name":"ChangeDepegThreshold","inputs":[{"name":"oldDepeg","type":"uint256","indexed":false,"internalType":"uint256"},{"name":"newDepeg","type":"uint256","indexed":false,"internalType":"uint256"}],"anonymous":false},{"type":"event","name":"Donation","inputs":[{"name":"account","type":"address","indexed":true,"internalType":"address"},{"name":"amount","type":"uint256","indexed":true,"internalType":"uint256"}],"anonymous":false},{"type":"event","name":"EIP712DomainChanged","inputs":[],"anonymous":false},{"type":"event","name":"EthConverted","inputs":[{"name":"ethAmount","type":"uint256","indexed":false,"internalType":"uint256"},{"name":"protectedAssetAmount","type":"uint256","indexed":false,"internalType":"uint256"}],"anonymous":false},{"type":"event","name":"Help","inputs":[{"name":"accountTo","type":"address","indexed":true,"internalType":"address"},{"name":"amount","type":"uint256","indexed":true,"internalType":"uint256"}],"anonymous":false},{"type":"event","name":"Initialized","inputs":[{"name":"version","type":"uint64","indexed":false,"internalType":"uint64"}],"anonymous":false},{"type":"event","name":"OwnershipTransferred","inputs":[{"name":"previousOwner","type":"address","indexed":true,"internalType":"address"},{"name":"newOwner","type":"address","indexed":true,"internalType":"address"}],"anonymous":false},{"type":"event","name":"ProtectedAssetRotated","inputs":[{"name":"oldProtectedAsset","type":"address","indexed":true,"internalType":"address"},{"name":"newProtectedAsset","type":"address","indexed":true,"internalType":"address"}],"anonymous":false},{"type":"event","name":"SafeAssetChanged","inputs":[{"name":"newSafeAsset","type":"address","indexed":true,"internalType":"address"}],"anonymous":false},{"type":"event","name":"Transfer","inputs":[{"name":"from","type":"address","indexed":true,"internalType":"address"},{"name":"to","type":"address","indexed":true,"internalType":"address"},{"name":"value","type":"uint256","indexed":false,"internalType":"uint256"}],"anonymous":false},{"type":"event","name":"Upgraded","inputs":[{"name":"implementation","type":"address","indexed":true,"internalType":"address"}],"anonymous":false},{"type":"event","name":"WithdrawalConfirmed","inputs":[{"name":"operationId","type":"uint256","indexed":true,"internalType":"uint256"}],"anonymous":false},{"type":"event","name":"WithdrawalProtectedAsset","inputs":[{"name":"operationId","type":"uint256","indexed":true,"internalType":"uint256"},{"name":"amount","type":"uint256","indexed":false,"internalType":"uint256"},{"name":"token","type":"address","indexed":false,"internalType":"address"},{"name":"recipient","type":"address","indexed":false,"internalType":"address"},{"name":"offchain","type":"bool","indexed":false,"internalType":"bool"},{"name":"decription","type":"string","indexed":false,"internalType":"string"}],"anonymous":false},{"type":"error","name":"AddressEmptyCode","inputs":[{"name":"target","type":"address","internalType":"address"}]},{"type":"error","name":"CheckAlreadyUsed","inputs":[]},{"type":"error","name":"ECDSAInvalidSignature","inputs":[]},{"type":"error","name":"ECDSAInvalidSignatureLength","inputs":[{"name":"length","type":"uint256","internalType":"uint256"}]},{"type":"error","name":"ECDSAInvalidSignatureS","inputs":[{"name":"s","type":"bytes32","internalType":"bytes32"}]},{"type":"error","name":"ERC1967InvalidImplementation","inputs":[{"name":"implementation","type":"address","internalType":"address"}]},{"type":"error","name":"ERC1967NonPayable","inputs":[]},{"type":"error","name":"ERC20InsufficientAllowance","inputs":[{"name":"spender","type":"address","internalType":"address"},{"name":"allowance","type":"uint256","internalType":"uint256"},{"name":"needed","type":"uint256","internalType":"uint256"}]},{"type":"error","name":"ERC20InsufficientBalance","inputs":[{"name":"sender","type":"address","internalType":"address"},{"name":"balance","type":"uint256","internalType":"uint256"},{"name":"needed","type":"uint256","internalType":"uint256"}]},{"type":"error","name":"ERC20InvalidApprover","inputs":[{"name":"approver","type":"address","internalType":"address"}]},{"type":"error","name":"ERC20InvalidReceiver","inputs":[{"name":"receiver","type":"address","internalType":"address"}]},{"type":"error","name":"ERC20InvalidSender","inputs":[{"name":"sender","type":"address","internalType":"address"}]},{"type":"error","name":"ERC20InvalidSpender","inputs":[{"name":"spender","type":"address","internalType":"address"}]},{"type":"error","name":"ERC2612ExpiredSignature","inputs":[{"name":"deadline","type":"uint256","internalType":"uint256"}]},{"type":"error","name":"ERC2612InvalidSigner","inputs":[{"name":"signer","type":"address","internalType":"address"},{"name":"owner","type":"address","internalType":"address"}]},{"type":"error","name":"EvacuationInProgress","inputs":[]},{"type":"error","name":"EvacuationWithCreditFailed","inputs":[{"name":"","type":"uint256","internalType":"uint256"},{"name":"","type":"uint256","internalType":"uint256"}]},{"type":"error","name":"FailedCall","inputs":[]},{"type":"error","name":"FlashloanFailed","inputs":[]},{"type":"error","name":"InsufficientOutputAmount","inputs":[{"name":"","type":"uint256","internalType":"uint256"},{"name":"","type":"uint256","internalType":"uint256"}]},{"type":"error","name":"InvalidAccountNonce","inputs":[{"name":"account","type":"address","internalType":"address"},{"name":"currentNonce","type":"uint256","internalType":"uint256"}]},{"type":"error","name":"InvalidInitialization","inputs":[]},{"type":"error","name":"NeedSetSafeAsset","inputs":[]},{"type":"error","name":"NoEthToConvert","inputs":[]},{"type":"error","name":"NotInitializing","inputs":[]},{"type":"error","name":"NotMultiSigOwner","inputs":[]},{"type":"error","name":"NullDonation","inputs":[{"name":"account","type":"address","internalType":"address"}]},{"type":"error","name":"OperationHasNoChecks","inputs":[]},{"type":"error","name":"OperationNotFound","inputs":[]},{"type":"error","name":"OwnableInvalidOwner","inputs":[{"name":"owner","type":"address","internalType":"address"}]},{"type":"error","name":"OwnableUnauthorizedAccount","inputs":[{"name":"account","type":"address","internalType":"address"}]},{"type":"error","name":"PriceIsStable","inputs":[]},{"type":"error","name":"UUPSUnauthorizedCallContext","inputs":[]},{"type":"error","name":"UUPSUnsupportedProxiableUUID","inputs":[{"name":"slot","type":"bytes32","internalType":"bytes32"}]},{"type":"error","name":"WithdrawalProtectedAssetFailed","inputs":[]}],"bytecode":{"object":"0x60a080604052346100c257306080525f5160206141ed5f395f51905f525460ff8160401c166100b3576002600160401b03196001600160401b03821601610060575b60405161412690816100c78239608051818181611d8d0152611e310152f35b6001600160401b0319166001600160401b039081175f5160206141ed5f395f51905f525581527fc7f505b2f371ae2175ee4913f4499e1f2633a7b5936321eed1cdaeb6115181d290602090a15f80610041565b63f92ee8a960e01b5f5260045ffd5b5f80fdfe608080604052600436101561001c575b50361561001a575f80fd5b005b5f905f3560e01c9081630625177214612ae95750806306fdde0314612a075780630840ba7214612905578063095ea7b3146128df5780630ce5a840146128b657806312261ee71461288a5780631420851f1461286d57806318160ddd146128315780631b11d0ff146125f257806323b872dd146125c35780632630c12f1461259b57806328f40f4b146125735780632c3a24291461211f5780632ea2da4e146120b7578063313ce5671461209b5780633644e515146120805780633d4912c314612062578063401a2491146120025780634f1ef28614611de157806352d1902d14611d7a57806352f9f57c14611ccf57806354fd4d5014611c88578063605629d614611c515780636ceb612314611c2857806370a0823114611be3578063715018a614611b7a57806371706cbe14611b5c57806371f2ed4314611b335780637ecebe0014611adc57806384b0196e146118045780638d129f18146117d75780638da5cb5b146117a25780638edeb15d146116a257806395d89b41146115a7578063a03e4bc314611580578063a0aa001714611528578063a9059cbb146114f6578063aad3a1461461128d578063ad3cb1cc14611240578063cd8764b11461090f578063d505accf146108f1578063d5f48ac01461089b578063db126c9914610837578063dd62ed3e146107ef578063e0e602e4146107b0578063ee87798f146103ea578063f2fde38b146103bd578063f3b386901461026a5763f887ea400361000f57346102675780600319360112610267576001546040516001600160a01b039091168152602090f35b80fd5b503461026757602036600319011261026757600435610287613b45565b808252600b60205260408220548015806103a5575b61039657818352600960205260036040842001541561038757600a545f198101908111610373576102cc90612b6e565b90549060031b1c806102f66102e084612b6e565b819391549060031b91821b915f19901b19161790565b90558352600b6020526040832055600a54801561035f575f190161031981612b6e565b8154905f199060031b1b19169055600a55808252600b6020528160408120557ff4e72f675e28ea6492e6c3f45e87ae0e4a0ce105ccd24ce5ae44e09351101a038280a280f35b634e487b7160e01b83526031600452602483fd5b634e487b7160e01b84526011600452602484fd5b6322f5140560e01b8352600483fd5b630f046c7760e41b8352600483fd5b50816103af612b9a565b90549060031b1c141561029c565b5034610267576020366003190112610267576103e76103da612b2c565b6103e2613b45565b61328b565b80f35b503461026757608036600319011261026757610404612b2c565b60243590604435801515928382036107ac576064356001600160401b0381116107a857610435903690600401612be1565b5f5160206140715f395f51905f52546040516317aa5fb760e11b815233600482015291929190602090829060249082906001600160a01b03165afa90811561079d57889161077e575b501561076f57600c545f19811461075b5790600188949392019687600c556020966040516104ac8982612c3d565b8681525f36813760036040516104c181612c0e565b8781528b8b82018c604060018060a01b0388169c8d84526009828701938b85526060880196428852608089019a8b528352522093518455600184019160018060a01b039051166001600160601b0360a01b83541617825551151581549060ff60a01b9060a01b169060ff60a01b1916179055516002820155019051908151916001600160401b03831161074757600160401b8311610747578a908d8484549181865582821061071b575b928496508b9592509390930191528d848120905b8381106107045750506004805460405163a9059cbb60e01b81526001600160a01b03978816928101929092526024820194909452948593604493508492508f91165af19081156106f9578a916106cc575b50156106bd57928288959360c0937f9129dc0b6de07e9216e0dab034a407578e193d1accabe3ebbbf55e2560b222689660018060a01b03600454169660405197889687528c8701526040860152606085015260a060808501528160a08501528484013781810183018a9052601f01601f19168101030190a21561069557600b600a549183855252806040842055600160401b811015610681576102e081600161067c9301600a55612b6e565b905580f35b634e487b7160e01b83526041600452602483fd5b507ff4e72f675e28ea6492e6c3f45e87ae0e4a0ce105ccd24ce5ae44e09351101a038280a280f35b63076ed10760e51b8952600489fd5b6106ec9150883d8a116106f2575b6106e48183612c3d565b810190612d66565b5f6105d0565b503d6106da565b6040513d8c823e3d90fd5b8251818301558d958b95509092019160010161057f565b85815284812092830192870191505b8282106107395786915061056b565b81558d93506001018f61072a565b634e487b7160e01b8d52604160045260248dfd5b634e487b7160e01b88526011600452602488fd5b630cdf99e760e01b8752600487fd5b610797915060203d6020116106f2576106e48183612c3d565b5f61047e565b6040513d8a823e3d90fd5b8580fd5b8480fd5b5034610267576040366003190112610267576107e060209160043581526009835260036040602435922001612bcc565b90549060031b1c604051908152f35b503461026757604036600319011261026757610809612b2c565b61081a610814612b42565b916130cf565b9060018060a01b03165f52602052602060405f2054604051908152f35b5034610267576060366003190112610267576004356001600160401b0381168103610897576024359063ffffffff82168203610893576044359263ffffffff8416840361026757602061088b858585613236565b604051908152f35b8280fd5b5080fd5b5034610267576020366003190112610267577f5c1f03a3b097beb598366b5c1ea9bdbd8c322597c849978cd5c53df758ddf36360406004356108db613b45565b600654908060065582519182526020820152a180f35b5034610267576103e761090336612caf565b95949094939193613107565b503461026757610160366003190112610267576004356001600160401b03811161089757610941903690600401612d03565b6024356001600160401b03811161089357610960903690600401612d03565b90604435906001600160a01b038216820361123c5761097d612b58565b6084356001600160a01b038116908190036107a85760a4356001600160a01b038116908190036112385760c4356001600160a01b03811692908390036112345760e4356001600160a01b038116949085900361123057610124356001600160a01b038116969087900361122c5761014435976001600160a01b0389168903611228575f5160206140d15f395f51905f5254996001600160401b0360ff8c60401c16159b1680159081611220575b6001149081611216575b15908161120d575b506111fe578a60016001600160401b03195f5160206140d15f395f51905f525416175f5160206140d15f395f51905f52556111ce575b610a7a613c3c565b610a82613c3c565b610a8a613c3c565b82516001600160401b03811161074757610ab15f516020613ff15f395f51905f5254612d21565b8d601f821161115b575b5081905060208e6001601f8411146110e157916110d6575b508160011b915f199060031b1c1916175f516020613ff15f395f51905f52555b8051906001600160401b038211610747578c8291610b1e5f5160206140515f395f51905f5254612d21565b601f8111611058575b50602091601f8411600114610fdc5792610fd1575b50508160011b915f199060031b1c1916175f5160206140515f395f51905f52555b610b65613c3c565b60405191610b74604084612c3d565b60018352603160f81b6020840152610b8a613c3c565b8051906001600160401b038211610747578c8291610bb55f5160206140315f395f51905f5254612d21565b601f8111610f53575b50602091601f8411600114610ed75792610ecc575b50508160011b915f199060031b1c1916175f5160206140315f395f51905f52555b81516001600160401b038111610eb857610c1b5f5160206140915f395f51905f5254612d21565b601f8111610e44575b5060208c601f8311600114610dc35790610cb59483610db8575b50508160011b915f199060031b1c1916175f5160206140915f395f51905f52555b8a7fa16a46d94261c7517cc8ff89f61c0ce93598e3c849801011dee649a6a557d100558a7fa16a46d94261c7517cc8ff89f61c0ce93598e3c849801011dee649a6a557d10155610cad613c3c565b6103e2613c3c565b610cbd613c3c565b60018060a01b03166001600160601b0360a01b8954161788556001600160601b0360a01b60025416176002556001600160601b0360a01b60045416176004556001600160601b0360a01b60035416176003556001600160601b0360a01b6005541617600555610104356006556001600160601b0360a01b600154161760015560075490610100600160a81b039060081b1690610100600160a81b03191617600755610d655780f35b60ff60401b195f5160206140d15f395f51905f5254165f5160206140d15f395f51905f52557fc7f505b2f371ae2175ee4913f4499e1f2633a7b5936321eed1cdaeb6115181d2602060405160018152a180f35b015190505f80610c3e565b919293601f1984165f5160206140915f395f51905f528452828420935b818110610e2c5750916001939185610cb597969410610e14575b505050811b015f5160206140915f395f51905f5255610c5f565b01515f1960f88460031b161c191690555f8080610dfa565b92936020600181928786015181550195019301610de0565b5f5160206140915f395f51905f528d527f5f9ce34815f8e11431c7bb75a8e6886a91478f7ffc1dbb0a98dc240fddd76b75601f830160051c81019160208410610eae575b601f0160051c01908d905b828110610ea1575050610c24565b9081558d90600101610e93565b9091508190610e88565b634e487b7160e01b8c52604160045260248cfd5b015190505f80610bd3565b5f5160206140315f395f51905f5281528281209350601f198516905b818110610f3b5750908460019594939210610f23575b505050811b015f5160206140315f395f51905f5255610bf4565b01515f1960f88460031b161c191690555f8080610f09565b92936020600181928786015181550195019301610ef3565b5f5160206140315f395f51905f5290925291507f42ad5d3e1f2e6e70edcf6d991b8a3023d3fca8047a131592f9edb9fd9b89d57d601f840160051c81019160208510610fc7575b918f9291601f8695930160051c01905b818110610fb75750610bbe565b9283558493508f92600101610faa565b9091508190610f9a565b015190505f80610b3c565b5f5160206140515f395f51905f5281528281209350601f198516905b8181106110405750908460019594939210611028575b505050811b015f5160206140515f395f51905f5255610b5d565b01515f1960f88460031b161c191690555f808061100e565b92936020600181928786015181550195019301610ff8565b5f5160206140515f395f51905f5290925291507f46a2803e59a4de4e7a4c574b1243f25977ac4c77d5a1a4a609b5394cebb4a2aa601f840160051c810191602085106110cc575b918f9291601f8695930160051c01905b8181106110bc5750610b27565b9283558493508f926001016110af565b909150819061109f565b90508401515f610ad3565b5f516020613ff15f395f51905f5281528181209250601f198416905b8181106111435750908360019493921061112b575b5050811b015f516020613ff15f395f51905f5255610af3565b8601515f1960f88460031b161c191690555f80611112565b9192602060018192868b0151815501940192016110fd565b5f516020613ff15f395f51905f5290527f2ae08a8e29253f69ac5d979a101956ab8f8d9d7ded63fa7a83b16fc47648eab0601f830160051c810191602084106111c4575b601f0160051c01908e905b8281106111b75750610abb565b9081558e906001016111aa565b909150819061119f565b600160401b60ff60401b195f5160206140d15f395f51905f525416175f5160206140d15f395f51905f5255610a72565b63f92ee8a960e01b8c5260048cfd5b9050155f610a3c565b303b159150610a34565b8c9150610a2a565b8a80fd5b8980fd5b8880fd5b8780fd5b8680fd5b8380fd5b503461026757806003193601126102675750611289604051611263604082612c3d565b60058152640352e302e360dc1b6020820152604051918291602083526020830190612b08565b0390f35b50346102675760a0366003190112610267576004356024356001600160401b0381169081810361123c57604435916001600160401b03831683036107ac5760643563ffffffff811681036107a8576084359163ffffffff83168303611238575f5160206140715f395f51905f52546040516317aa5fb760e11b815233600482015290602090829060249082906001600160a01b03165afa90811561079d5788916114d7575b501561076f57858752600b6020526040872054600a54159081156114b0575b506114a157611361838387613236565b90818852600860205260408820906001600160401b03825460401c16611492576001600160401b0319825416178155805463ffffffff60a01b8560a01b16906fffffffffffffffff00000000000000008860401b169077ffffffffffffffffffffffffffffffff000000000000000019161763ffffffff60801b8560801b1617179055858752600960205260036040882001805490600160401b82101561147e579161143e6102e0837f2f433b600e826b7e23dc41125cd5863df641380c40317216de99109acef874789998979560016114789896018155612bcc565b905560405194859485929363ffffffff809296956001600160401b0360609581608089019a16885216602087015216604085015216910152565b0390a280f35b634e487b7160e01b89526041600452602489fd5b635cb6b02f60e01b8952600489fd5b630f046c7760e41b8752600487fd5b905015806114bf575b5f611351565b50856114c9612b9a565b90549060031b1c14156114b9565b6114f0915060203d6020116106f2576106e48183612c3d565b5f611332565b50346102675760403660031901126102675761151d611513612b2c565b6024359033613a61565b602060405160018152f35b5034610267576020366003190112610267576040608091600435815260096020522080549060ff600260018301549201549160405193845260018060a01b038116602085015260a01c16151560408301526060820152f35b5034610267578060031936011261026757546040516001600160a01b039091168152602090f35b503461026757806003193601126102675760405190805f5160206140515f395f51905f5254906115d682612d21565b808552916001811690811561167b5750600114611612575b611289846115fe81860382612c3d565b604051918291602083526020830190612b08565b5f5160206140515f395f51905f5281527f46a2803e59a4de4e7a4c574b1243f25977ac4c77d5a1a4a609b5394cebb4a2aa939250905b808210611661575090915081016020016115fe826115ee565b919260018160209254838588010152019101909291611648565b60ff191660208087019190915292151560051b850190920192506115fe91508390506115ee565b508060031936011261026757341561178f57331561177b576116e5347f52c63247e1f47db19d5ce0460030c497f067ca4cebf71ba98eeadabe20bace0254612d59565b7f52c63247e1f47db19d5ce0460030c497f067ca4cebf71ba98eeadabe20bace02553381525f5160206140115f395f51905f5260205260408120348154019055604051348152817fddf252ad1be2c89b69c2b068fc378daa952ba7f163c4a11628f55a4df523b3ef60203393a334337f5d8bc849764969eb1bcc6d0a2f55999d0167c1ccec240a4f39cf664ca9c4148e8380a380f35b63ec442f0560e01b81526004819052602490fd5b6393c471d960e01b815233600452602490fd5b50346102675780600319360112610267575f5160206140715f395f51905f52546040516001600160a01b039091168152602090f35b50346102675760203660031901126102675760036040602092600435815260098452200154604051908152f35b50346102675780600319360112610267577fa16a46d94261c7517cc8ff89f61c0ce93598e3c849801011dee649a6a557d100541580611ab3575b15611a76576040519080825f5160206140315f395f51905f52549161186283612d21565b8083529260018116908115611a5757506001146119ed575b61188692500383612c3d565b6040519080825f5160206140915f395f51905f5254916118a583612d21565b80835292600181169081156119ce5750600114611964575b6118d1919392509361190895940383612c3d565b6020611916604051936118e48386612c3d565b8385525f368137604051968796600f60f81b885260e08589015260e0880190612b08565b908682036040880152612b08565b904660608601523060808601528260a086015284820360c08601528080855193848152019401925b82811061194d57505050500390f35b83518552869550938101939281019260010161193e565b505f5160206140915f395f51905f5283529082907f5f9ce34815f8e11431c7bb75a8e6886a91478f7ffc1dbb0a98dc240fddd76b755b8183106119b25750509060206118d1928201016118bd565b602091935080600191548385890101520191019091849261199a565b602092506118d194915060ff191682840152151560051b8201016118bd565b505f5160206140315f395f51905f5283529082907f42ad5d3e1f2e6e70edcf6d991b8a3023d3fca8047a131592f9edb9fd9b89d57d5b818310611a3b5750509060206118869282010161187a565b6020919350806001915483858901015201910190918492611a23565b6020925061188694915060ff191682840152151560051b82010161187a565b60405162461bcd60e51b81526020600482015260156024820152741152540dcc4c8e88155b9a5b9a5d1a585b1a5e9959605a1b6044820152606490fd5b507fa16a46d94261c7517cc8ff89f61c0ce93598e3c849801011dee649a6a557d101541561183e565b5034610267576020366003190112610267576040602091611afb612b2c565b6001600160a01b031681527f5ab42ced628888259c08ac98db1eb0cf702fc1501344311d8b100cd1bfe4bb0083522054604051908152f35b50346102675780600319360112610267576003546040516001600160a01b039091168152602090f35b50346102675780600319360112610267576020600c54604051908152f35b5034610267578060031936011261026757611b93613b45565b5f5160206140715f395f51905f5280546001600160a01b0319811690915581906001600160a01b03167f8be0079c531659141344cd1fd0a4f28419497f9722a3daafe3b4186f6b6457e08280a380f35b5034610267576020366003190112610267576020906040906001600160a01b03611c0b612b2c565b1681525f5160206140115f395f51905f5283522054604051908152f35b50346102675780600319360112610267576005546040516001600160a01b039091168152602090f35b5034610267576020611c7e611c79611c6836612caf565b928486889798999699949394613107565b612d7e565b6040519015158152f35b503461026757806003193601126102675750611289604051611cab604082612c3d565b6003815262302e3360e81b6020820152604051918291602083526020830190612b08565b50346102675760803660031901126102675760043590602435604435606435916024602060018060a01b035f5160206140715f395f51905f525416604051928380926317aa5fb760e11b82523360048301525afa908115611d6f578591611d50575b5015611d41576103e79394612e4f565b630cdf99e760e01b8452600484fd5b611d69915060203d6020116106f2576106e48183612c3d565b5f611d31565b6040513d87823e3d90fd5b50346102675780600319360112610267577f00000000000000000000000000000000000000000000000000000000000000006001600160a01b03163003611dd25760206040515f5160206140b15f395f51905f528152f35b63703e46dd60e11b8152600490fd5b50604036600319011261026757611df6612b2c565b906024356001600160401b038111610897573660238201121561089757611e27903690602481600401359101612c79565b6001600160a01b037f000000000000000000000000000000000000000000000000000000000000000016308114908115611fe0575b50611fd157611e69613b45565b6040516352d1902d60e01b8152926001600160a01b0381169190602085600481865afa80958596611f9d575b50611eae57634c9c8ce360e01b84526004839052602484fd5b9091845f5160206140b15f395f51905f528103611f8b5750813b15611f79575f5160206140b15f395f51905f5280546001600160a01b031916821790557fbc7cd75a20ee27fd9adebab32041f755214dbc6bffa90cc0225b39da2e5c2d3b8480a28151839015611f5f5780836020611f5395519101845af43d15611f57573d91611f3783612c5e565b92611f456040519485612c3d565b83523d85602085013e613f92565b5080f35b606091613f92565b50505034611f6a5780f35b63b398979f60e01b8152600490fd5b634c9c8ce360e01b8452600452602483fd5b632a87526960e21b8552600452602484fd5b9095506020813d602011611fc9575b81611fb960209383612c3d565b810103126107ac5751945f611e95565b3d9150611fac565b63703e46dd60e11b8252600482fd5b5f5160206140b15f395f51905f52546001600160a01b0316141590505f611e5c565b5034610267576020366003190112610267576004358152600860209081526040918290205482516001600160401b03808316825282851c169281019290925263ffffffff608082811c82169484019490945260a09190911c166060820152f35b50346102675780600319360112610267576020600654604051908152f35b5034610267578060031936011261026757602061088b613bdb565b5034610267578060031936011261026757602060405160128152f35b5034610267576020366003190112610267576120d1612b2c565b6120d9613b45565b600580546001600160a01b0319166001600160a01b039290921691821790557fa8613c90e433ae22cb1285f605dbb6c38749db1c57c595f817cf764660d6552d8280a280f35b50346124e35760203660031901126124e3576004359061213d613b45565b478015612564576004546001600160801b03906001600160a01b031680158015919061255d575f915b801561255757815b6040519361217b85612c0e565b60018060a01b0316845260018060a01b03166020840152610bb86040840152603c60608401525f60808401526123906123a260405194600160fc1b6020870152600186526121ca602187612c3d565b6122eb886121d6613309565b604051600360f91b6020820152600360fa1b6021820152600f60f81b602282015260038152909690938d906122f990612210602388612c3d565b6122eb8d61221c613343565b96169460209e8f9581604051936122338986612c3d565b5f85526040519661224388612c0e565b875288870190815260408701908a825282606089019416845260808801958652604051998a9881808b0152519060018060a01b0382511660408b015260018060a01b03908201511660608a015262ffffff60408201511660808a0152606081015160020b60a08a0152608060018060a01b039101511660c089015251151560e08801525116610100860152511661012084015251610120610140840152610160830190612b08565b03601f198101835282612c3d565b6123028361337d565b5261230c8261337d565b50604051905f8b83015260408201526040815261232a606082612c3d565b6123338261338a565b5261233d8161338a565b50604080516001600160a01b0389168b82019081525f60208201529091612366918391016122eb565b61236f8261339a565b526123798161339a565b5060405194859360408b8601526060850190612b08565b838103601f19016040850152906133aa565b6123ab8261337d565b526123b58161337d565b506040516370a0823160e01b8152306004820152928484602481865afa938415612509575f94612528575b506102584201804211612514576001546001600160a01b0316803b156124e35761242493885f9460405196879586948593630d64d59360e21b855260048501613402565b03925af18015612509576124ee575b509082602492604051938480926370a0823160e01b82523060048301525afa8015611d6f5785906124bb575b61246992506132fc565b938085106124a457507f3118156f830484d81e284626921bedbd590581f12fdb16fc4dfaf99837c547fa91846040928351928352820152a180f35b63d28d3eb560e01b84526004859052602452604483fd5b508282813d83116124e7575b6124d18183612c3d565b810103126124e357612469915161245f565b5f80fd5b503d6124c7565b6024929195505f6124fe91612c3d565b825f95919250612433565b6040513d5f823e3d90fd5b634e487b7160e01b5f52601160045260245ffd5b9093508481813d8311612550575b6125408183612c3d565b810103126124e35751925f6123e0565b503d612536565b5f61216e565b8091612166565b63eb75820760e01b5f5260045ffd5b346124e3575f3660031901126124e3576004546040516001600160a01b039091168152602090f35b346124e3575f3660031901126124e3576002546040516001600160a01b039091168152602090f35b346124e35760603660031901126124e3576020611c7e6125e1612b2c565b6125e9612b42565b60443591612d7e565b346124e35760a03660031901126124e35761260b612b2c565b60243590612617612b58565b916084356001600160401b0381116124e357612637903690600401612be1565b909360018060a01b035f541633149081159161281d575b5061280e5783608091810103126124e357823590602084013593612692606060408301359201359560018060a01b03600454166001600160801b0385169087613430565b50600480546040516370a0823160e01b815230928101929092526001600160a01b0316602082602481845afa918215612509575f926127d8575b506126fb926126f4926126ea9260018060a01b036005541690613430565b9260443590612d59565b8095612d59565b808211156127c257612770602086867f0b3ac1d74721f90e0201bd1b837529b8ad867fd2d1a69d46c7cabd2affa51dab60408888825191825286820152a15f805460405163095ea7b360e01b81526001600160a01b039091166004820152602481019390935291938492839182906044820190565b03926001600160a01b03165af18015612509576127a5575b612790613a06565b60ff1960075416600755602060405160018152f35b6127bd9060203d6020116106f2576106e48183612c3d565b612788565b90635b0db69760e11b5f5260045260245260445ffd5b9091506020813d602011612806575b816127f460209383612c3d565b810103126124e35751906126fb6126cc565b3d91506127e7565b6301fabd5b60e71b5f5260045ffd5b6001600160a01b031630141590508561264e565b346124e3575f3660031901126124e35760207f52c63247e1f47db19d5ce0460030c497f067ca4cebf71ba98eeadabe20bace0254604051908152f35b346124e3575f3660031901126124e3576020600a54604051908152f35b346124e3575f3660031901126124e35760075460405160089190911c6001600160a01b03168152602090f35b346124e35760203660031901126124e357600435600a548110156124e3576107e0602091612b6e565b346124e35760403660031901126124e35761151d6128fb612b2c565b6024359033613b78565b346124e35760403660031901126124e35761291e612b2c565b612926612b42565b5f5160206140d15f395f51905f525460ff8160401c169081156129f2575b506129e3575f5160206140d15f395f51905f528054600180546001600160a01b0319166001600160a01b039095169490941790935560078054610100600160a81b03191660089390931b610100600160a81b03169290921790915568ffffffffffffffffff1990911660029081179091556040519081527fc7f505b2f371ae2175ee4913f4499e1f2633a7b5936321eed1cdaeb6115181d290602090a1005b63f92ee8a960e01b5f5260045ffd5b600291506001600160401b0316101583612944565b346124e3575f3660031901126124e3576040515f5f516020613ff15f395f51905f5254612a3381612d21565b8084529060018116908115612ac55750600114612a5b575b611289836115fe81850382612c3d565b5f516020613ff15f395f51905f525f9081527f2ae08a8e29253f69ac5d979a101956ab8f8d9d7ded63fa7a83b16fc47648eab0939250905b808210612aab575090915081016020016115fe612a4b565b919260018160209254838588010152019101909291612a93565b60ff191660208086019190915291151560051b840190910191506115fe9050612a4b565b346124e3575f3660031901126124e35760209060ff6007541615158152f35b805180835260209291819084018484015e5f828201840152601f01601f1916010190565b600435906001600160a01b03821682036124e357565b602435906001600160a01b03821682036124e357565b606435906001600160a01b03821682036124e357565b600a54811015612b8657600a5f5260205f2001905f90565b634e487b7160e01b5f52603260045260245ffd5b600a5415612b8657600a5f9081527fc65a7bb8d6351c1cf70c95a316cc6a92839c986682d98bc35f958f4883f9d2a891565b8054821015612b86575f5260205f2001905f90565b9181601f840112156124e3578235916001600160401b0383116124e357602083818601950101116124e357565b60a081019081106001600160401b03821117612c2957604052565b634e487b7160e01b5f52604160045260245ffd5b90601f801991011681019081106001600160401b03821117612c2957604052565b6001600160401b038111612c2957601f01601f191660200190565b929192612c8582612c5e565b91612c936040519384612c3d565b8294818452818301116124e3578281602093845f960137010152565b60e09060031901126124e3576004356001600160a01b03811681036124e357906024356001600160a01b03811681036124e35790604435906064359060843560ff811681036124e3579060a4359060c43590565b9080601f830112156124e357816020612d1e93359101612c79565b90565b90600182811c92168015612d4f575b6020831014612d3b57565b634e487b7160e01b5f52602260045260245ffd5b91607f1691612d30565b9190820180921161251457565b908160209103126124e3575180151581036124e35790565b9190612d89836130cf565b335f9081526020919091526040902054925f198410612db2575b612dad9350613a61565b600190565b828410612e1d576001600160a01b03811615612e0a573315612df757612dad93612ddb826130cf565b60018060a01b0333165f526020528360405f2091039055612da3565b634a1406b160e11b5f525f60045260245ffd5b63e602df0560e01b5f525f60045260245ffd5b8284637dc7a0d960e11b5f523360045260245260445260645ffd5b519069ffffffffffffffffffff821682036124e357565b9290926007549260ff84166130c0576004546005546001600160a01b039182169591169081861480156130b8575b6130a957600254604051633fabe5a360e21b81529060a090829060049082906001600160a01b03165afa908115612509575f9161305c575b50600654111561304d5760ff19166001176007556040516370a0823160e01b8152306004820152602081602481895afa8015612509575f90613014575b6001600160801b039150169485612f1f575b50505050505050612f13613a06565b60ff1960075416600755565b8615612fc757505060405193602085015260408401526060830152608082015260808152612f4e60a082612c3d565b5f546005546001600160a01b03908116929116803b156124e357612fa4935f8094604051968795869485936310ac2ddf60e21b85523060048601526024850152604484015260a0606484015260a4830190612b08565b82608483015203925af1801561250957612fbb5750565b5f612fc591612c3d565b565b7f0b3ac1d74721f90e0201bd1b837529b8ad867fd2d1a69d46c7cabd2affa51dab9650859450612ffd9392509060409591613430565b82519182526020820152a15f808080808080612f04565b506020813d602011613045575b8161302e60209383612c3d565b810103126124e3576001600160801b039051612ef2565b3d9150613021565b637b9d16bd60e01b5f5260045ffd5b905060a0813d60a0116130a1575b8161307760a09383612c3d565b810103126124e35761308881612e38565b5061309a608060208301519201612e38565b505f612eb5565b3d915061306a565b633847aa2360e11b5f5260045ffd5b508115612e7d565b632ade474d60e01b5f5260045ffd5b6001600160a01b03165f9081527f52c63247e1f47db19d5ce0460030c497f067ca4cebf71ba98eeadabe20bace016020526040902090565b929695949194939093874211613223576131f0926131e792604260018060a01b038716809b815f527f5ab42ced628888259c08ac98db1eb0cf702fc1501344311d8b100cd1bfe4bb0060205260405f20908154916001830190556040519160208301937f6e71edae12b1b97f4d1f60370fef10105fa2faae0126114a169c64845d6126c98552604084015260018060a01b038c1660608401528c608084015260a083015260c082015260c081526131bf60e082612c3d565b5190206131ca613bdb565b906040519161190160f01b83526002830152602282015220613c67565b90929192613ce9565b6001600160a01b031685810361320c5750612fc5939450613b78565b85906325c0072360e11b5f5260045260245260445ffd5b8763313c898160e11b5f5260045260245ffd5b916040519160208301936001600160401b0360c01b9060c01b16845263ffffffff60e01b9060e01b16602883015263ffffffff60e01b9060e01b16602c82015260108152613285603082612c3d565b51902090565b6001600160a01b031680156132e9575f5160206140715f395f51905f5280546001600160a01b0319811683179091556001600160a01b03167f8be0079c531659141344cd1fd0a4f28419497f9722a3daafe3b4186f6b6457e05f80a3565b631e4fbdf760e01b5f525f60045260245ffd5b9190820391821161251457565b6040805190919061331a8382612c3d565b6001815291601f1901825f5b82811061333257505050565b806060602080938501015201613326565b604051608091906133548382612c3d565b6003815291601f1901825f5b82811061336c57505050565b806060602080938501015201613360565b805115612b865760200190565b805160011015612b865760400190565b805160021015612b865760600190565b9080602083519182815201916020808360051b8301019401925f915b8383106133d557505050505090565b90919293946020806133f3600193601f198682030187528951612b08565b970193019301919392906133c6565b93929161342b9061341d604093606088526060880190612b08565b9086820360208801526133aa565b930152565b5f929184916001600160a01b038116801591908215613908575b6001600160a01b0384169384821090811561390157835b82156138fa57505b6040519361347685612c0e565b6001600160a01b03908116855216602080850191909152610bb8604080860191909152603c6060860152608085018a905251600160fc1b9181019190915260018152926134c4602185612c3d565b6134cc613309565b604051600360f91b6020820152600360fa1b6021820152600f60f81b60228201526003815290939091613500602384612c3d565b613508613343565b936001600160801b038b16918c60209b8c93604051926135288685612c3d565b83526040519361353785612c0e565b8452848401908152604084019086825260608501926001600160801b031683526080850193845260405195869581808801525190600160a01b600190038251166040880152600160a01b6001900390820151166060870152604081015162ffffff166080870152606081015160020b60a0870152600160a01b6001900390608001511660c086015251151560e0850152516001600160801b0316610100840152516001600160801b03166101208301525161014082016101209052610160820161360091612b08565b03601f19810182526136129082612c3d565b61361b8561337d565b526136258461337d565b50604080516001600160a01b039093168a84019081526001600160801b03909216828b01526020918390039182018352613660910182612c3d565b6136698361338a565b526136738261338a565b50604080516001600160a01b0388168982019081525f6020820152909182910103601f19810182526136a59082612c3d565b6136ae8361339a565b526136b88261339a565b5060405191829188830160409052606083016136d391612b08565b828103601f190160408401526136e8916133aa565b03601f19810182526136fa9082612c3d565b6137038261337d565b5261370d8161337d565b506040516370a0823160e01b815230600482015295858786815a91602492fa96871561079d5788976138cb575b506102584201938442116138b75715613848576001546001600160a01b031692833b1561123057604051630d64d59360e21b8152948994869490938593909284926137889260048501613402565b03925af18015611d6f57908591613833575b50509080602493925b6040516370a0823160e01b815230600482015294859182905afa9081156138285784916137f8575b506137d692506132fc565b918083106137e357505090565b60449263d28d3eb560e01b8352600452602452fd5b905082813d8311613821575b61380e8183612c3d565b810103126124e3576137d691515f6137cb565b503d613804565b6040513d86823e3d90fd5b8161383d91612c3d565b61123c57835f61379a565b506001546001600160a01b031691823b156112345791613883939188809460405196879586948593630d64d59360e21b855260048501613402565b03925af18015611d6f579085916138a2575b50509080602493926137a3565b816138ac91612c3d565b61123c57835f613895565b634e487b7160e01b89526011600452602489fd5b9096508581813d83116138f3575b6138e38183612c3d565b810103126124e35751955f61373a565b503d6138d9565b9050613469565b8093613461565b60075460405163095ea7b360e01b815260089190911c6001600160a01b03166004820152602481018790529094506020816044815f895af18015612509576139e9575b5060075460015460089190911c6001600160a01b0390811695911642610258810190811061251457863b156124e3576040516387517c4560e01b81526004810184905260248101929092526001600160a01b038816604483015265ffffffffffff166064820152945f908690608490829084905af19485156125095788956139d4575b5061344a565b6139e19197505f90612c3d565b5f955f6139ce565b613a019060203d6020116106f2576106e48183612c3d565b61394b565b600480546005546001600160a01b03198083166001600160a01b0392831690811790945560035460028054909216908316179055167f74d4239eeff1399e5f1346ca5bb663c48912dd659c68250eccf81620437f8c195f80a3565b6001600160a01b0316908115613b32576001600160a01b0316918215613b1f57815f525f5160206140115f395f51905f5260205260405f2054818110613b0657817fddf252ad1be2c89b69c2b068fc378daa952ba7f163c4a11628f55a4df523b3ef92602092855f525f5160206140115f395f51905f5284520360405f2055845f525f5160206140115f395f51905f52825260405f20818154019055604051908152a3565b8263391434e360e21b5f5260045260245260445260645ffd5b63ec442f0560e01b5f525f60045260245ffd5b634b637e8f60e11b5f525f60045260245ffd5b5f5160206140715f395f51905f52546001600160a01b03163303613b6557565b63118cdaa760e01b5f523360045260245ffd5b916001600160a01b038316918215612e0a576001600160a01b0316928315612df7577f8c5be1e5ebec7d5bd14f71427d1e84f3dd0314c0f7b2291e5b200ac8c7c3b92591613bc76020926130cf565b855f5282528060405f2055604051908152a3565b613be3613d5d565b613beb613e8a565b6040519060208201927f8b73c3c69bb8fe3d512ecc4cf759cc79239f7b179b0ffacaa9a75d522b39400f8452604083015260608201524660808201523060a082015260a0815261328560c082612c3d565b60ff5f5160206140d15f395f51905f525460401c1615613c5857565b631afcd79f60e31b5f5260045ffd5b91907f7fffffffffffffffffffffffffffffff5d576e7357a4501ddfe92f46681b20a08411613cde579160209360809260ff5f9560405194855216868401526040830152606082015282805260015afa15612509575f516001600160a01b03811615613cd457905f905f90565b505f906001905f90565b5050505f9160039190565b6004811015613d495780613cfb575050565b60018103613d125763f645eedf60e01b5f5260045ffd5b60028103613d2d575063fce698f760e01b5f5260045260245ffd5b600314613d375750565b6335e2f38360e21b5f5260045260245ffd5b634e487b7160e01b5f52602160045260245ffd5b6040515f5160206140315f395f51905f5254905f81613d7b84612d21565b9182825260208201946001811690815f14613e6e5750600114613e03575b613da592500382612c3d565b51908115613db1572090565b50507fa16a46d94261c7517cc8ff89f61c0ce93598e3c849801011dee649a6a557d100548015613dde5790565b507fc5d2460186f7233c927e7db2dcc703c0e500b653ca82273b7bfad8045d85a47090565b505f5160206140315f395f51905f525f90815290917f42ad5d3e1f2e6e70edcf6d991b8a3023d3fca8047a131592f9edb9fd9b89d57d5b818310613e52575050906020613da592820101613d99565b6020919350806001915483858801015201910190918392613e3a565b60ff1916865250613da592151560051b82016020019050613d99565b6040515f5160206140915f395f51905f5254905f81613ea884612d21565b9182825260208201946001811690815f14613f765750600114613f0b575b613ed292500382612c3d565b51908115613ede572090565b50507fa16a46d94261c7517cc8ff89f61c0ce93598e3c849801011dee649a6a557d101548015613dde5790565b505f5160206140915f395f51905f525f90815290917f5f9ce34815f8e11431c7bb75a8e6886a91478f7ffc1dbb0a98dc240fddd76b755b818310613f5a575050906020613ed292820101613ec6565b6020919350806001915483858801015201910190918392613f42565b60ff1916865250613ed292151560051b82016020019050613ec6565b90613fb65750805115613fa757602081519101fd5b63d6bda27560e01b5f5260045ffd5b81511580613fe7575b613fc7575090565b639996b31560e01b5f9081526001600160a01b0391909116600452602490fd5b50803b15613fbf56fe52c63247e1f47db19d5ce0460030c497f067ca4cebf71ba98eeadabe20bace0352c63247e1f47db19d5ce0460030c497f067ca4cebf71ba98eeadabe20bace00a16a46d94261c7517cc8ff89f61c0ce93598e3c849801011dee649a6a557d10252c63247e1f47db19d5ce0460030c497f067ca4cebf71ba98eeadabe20bace049016d09d72d40fdae2fd8ceac6b6234c7706214fd39c1cd1e609a0528c199300a16a46d94261c7517cc8ff89f61c0ce93598e3c849801011dee649a6a557d103360894a13ba1a3210667c828492db98dca3e2076cc3735a920a3ca505d382bbcf0c57e16840df040f15088dc2f81fe391c3923bec73e23a9662efc9c229c6a00a264697066735822122060e2ef7625ff3ae5c1c88df2f80995dcffb92852058f230bee6ea3a901c08bd564736f6c634300081b0033f0c57e16840df040f15088dc2f81fe391c3923bec73e23a9662efc9c229c6a00","linkReferences":{}},"methodIdentifiers":{"DOMAIN_SEPARATOR()":"3644e515","UPGRADE_INTERFACE_VERSION()":"ad3cb1cc","aavePool()":"a03e4bc3","addCheckToWithdrawal(uint256,uint64,uint64,uint32,uint32)":"aad3a146","allowance(address,address)":"dd62ed3e","approve(address,uint256)":"095ea7b3","balanceOf(address)":"70a08231","checks(bytes32)":"401a2491","confirmWithdrawal(uint256)":"f3b38690","convertEthToProtectedAsset(uint256)":"2c3a2429","decimals()":"313ce567","depegThreshold()":"3d4912c3","donation()":"8edeb15d","eip712Domain()":"84b0196e","evacuateIfDepegged(uint256,uint256,uint256,uint256)":"52f9f57c","evacuating()":"06251772","executeOperation(address,uint256,uint256,address,bytes)":"1b11d0ff","getReceiptHash(uint64,uint32,uint32)":"db126c99","getUnconfirmedOperationsCount()":"1420851f","getWithdrawalCheckAtIndex(uint256,uint256)":"e0e602e4","getWithdrawalChecksCount(uint256)":"8d129f18","initialize(string,string,address,address,address,address,address,address,uint256,address,address)":"cd8764b1","initializeV2(address,address)":"0840ba72","name()":"06fdde03","nonces(address)":"7ecebe00","owner()":"8da5cb5b","permit(address,address,uint256,uint256,uint8,bytes32,bytes32)":"d505accf","permit2()":"12261ee7","priceOracle()":"2630c12f","protectedAsset()":"28f40f4b","proxiableUUID()":"52d1902d","renounceOwnership()":"715018a6","router()":"f887ea40","safeAsset()":"6ceb6123","safeAssetPriceOracle()":"71f2ed43","setDepegThreshold(uint256)":"d5f48ac0","setSafeAsset(address)":"2ea2da4e","symbol()":"95d89b41","totalSupply()":"18160ddd","transfer(address,uint256)":"a9059cbb","transferFrom(address,address,uint256)":"23b872dd","transferOwnership(address)":"f2fde38b","transferWithPermit(address,address,uint256,uint256,uint8,bytes32,bytes32)":"605629d6","unconfirmedOperations(uint256)":"0ce5a840","upgradeToAndCall(address,bytes)":"4f1ef286","version()":"54fd4d50","withdrawalCount()":"71706cbe","withdrawalOperations(uint256)":"a0aa0017","withdrawalProtectedAsset(address,uint256,bool,string)":"ee87798f"},"id":69}