{"abi":[{"type":"receive","stateMutability":"payable"},{"type":"function","name":"DOMAIN_SEPARATOR","inputs":[],"outputs":[{"name":"","type":"bytes32","internalType":"bytes32"}],"stateMutability":"view"},{"type":"function","name":"UPGRADE_INTERFACE_VERSION","inputs":[],"outputs":[{"name":"","type":"string","internalType":"string"}],"stateMutability":"view"},{"type":"function","name":"aavePool","inputs":[],"outputs":[{"name":"","type":"address","internalType":"contract IPool"}],"stateMutability":"view"},{"type":"function","name":"allowance","inputs":[{"name":"owner","type":"address","internalType":"address"},{"name":"spender","type":"address","internalType":"address"}],"outputs":[{"name":"","type":"uint256","internalType":"uint256"}],"stateMutability":"view"},{"type":"function","name":"approve","inputs":[{"name":"spender","type":"address","internalType":"address"},{"name":"value","type":"uint256","internalType":"uint256"}],"outputs":[{"name":"","type":"bool","internalType":"bool"}],"stateMutability":"nonpayable"},{"type":"function","name":"balanceOf","inputs":[{"name":"account","type":"address","internalType":"address"}],"outputs":[{"name":"","type":"uint256","internalType":"uint256"}],"stateMutability":"view"},{"type":"function","name":"convertEthToProtectedAsset","inputs":[{"name":"data","type":"bytes","internalType":"bytes"},{"name":"minReturn","type":"uint256","internalType":"uint256"}],"outputs":[],"stateMutability":"nonpayable"},{"type":"function","name":"decimals","inputs":[],"outputs":[{"name":"","type":"uint8","internalType":"uint8"}],"stateMutability":"view"},{"type":"function","name":"depegThreshold","inputs":[],"outputs":[{"name":"","type":"uint256","internalType":"uint256"}],"stateMutability":"view"},{"type":"function","name":"donation","inputs":[],"outputs":[],"stateMutability":"payable"},{"type":"function","name":"eip712Domain","inputs":[],"outputs":[{"name":"fields","type":"bytes1","internalType":"bytes1"},{"name":"name","type":"string","internalType":"string"},{"name":"version","type":"string","internalType":"string"},{"name":"chainId","type":"uint256","internalType":"uint256"},{"name":"verifyingContract","type":"address","internalType":"address"},{"name":"salt","type":"bytes32","internalType":"bytes32"},{"name":"extensions","type":"uint256[]","internalType":"uint256[]"}],"stateMutability":"view"},{"type":"function","name":"evacuateIfDepegged","inputs":[{"name":"manipulationData","type":"bytes","internalType":"bytes"},{"name":"evacuationData","type":"bytes","internalType":"bytes"},{"name":"flashLoanAmount","type":"uint256","internalType":"uint256"},{"name":"manipulationMinReturn","type":"uint256","internalType":"uint256"},{"name":"evacuationMinReturn","type":"uint256","internalType":"uint256"},{"name":"simpleSwapMinReturn","type":"uint256","internalType":"uint256"}],"outputs":[],"stateMutability":"nonpayable"},{"type":"function","name":"evacuating","inputs":[],"outputs":[{"name":"","type":"bool","internalType":"bool"}],"stateMutability":"view"},{"type":"function","name":"executeOperation","inputs":[{"name":"asset","type":"address","internalType":"address"},{"name":"amount","type":"uint256","internalType":"uint256"},{"name":"premium","type":"uint256","internalType":"uint256"},{"name":"initiator","type":"address","internalType":"address"},{"name":"params","type":"bytes","internalType":"bytes"}],"outputs":[{"name":"","type":"bool","internalType":"bool"}],"stateMutability":"nonpayable"},{"type":"function","name":"initialize","inputs":[{"name":"name","type":"string","internalType":"string"},{"name":"symbol","type":"string","internalType":"string"},{"name":"initialOwner","type":"address","internalType":"address"},{"name":"_trustedForwarderAddress","type":"address","internalType":"address"},{"name":"_aavePool","type":"address","internalType":"address"},{"name":"_oneInchRouter","type":"address","internalType":"address"},{"name":"_priceOracle","type":"address","internalType":"address"},{"name":"_protectedAsset","type":"address","internalType":"address"},{"name":"_safeAssetPriceOracle","type":"address","internalType":"address"},{"name":"_safeAsset","type":"address","internalType":"address"},{"name":"_depegThreshold","type":"uint256","internalType":"uint256"}],"outputs":[],"stateMutability":"nonpayable"},{"type":"function","name":"isTrustedForwarder","inputs":[{"name":"forwarder","type":"address","internalType":"address"}],"outputs":[{"name":"","type":"bool","internalType":"bool"}],"stateMutability":"view"},{"type":"function","name":"name","inputs":[],"outputs":[{"name":"","type":"string","internalType":"string"}],"stateMutability":"view"},{"type":"function","name":"nonces","inputs":[{"name":"owner","type":"address","internalType":"address"}],"outputs":[{"name":"","type":"uint256","internalType":"uint256"}],"stateMutability":"view"},{"type":"function","name":"oneInchRouter","inputs":[],"outputs":[{"name":"","type":"address","internalType":"contract IOneInchRouter"}],"stateMutability":"view"},{"type":"function","name":"owner","inputs":[],"outputs":[{"name":"","type":"address","internalType":"address"}],"stateMutability":"view"},{"type":"function","name":"permit","inputs":[{"name":"owner","type":"address","internalType":"address"},{"name":"spender","type":"address","internalType":"address"},{"name":"value","type":"uint256","internalType":"uint256"},{"name":"deadline","type":"uint256","internalType":"uint256"},{"name":"v","type":"uint8","internalType":"uint8"},{"name":"r","type":"bytes32","internalType":"bytes32"},{"name":"s","type":"bytes32","internalType":"bytes32"}],"outputs":[],"stateMutability":"nonpayable"},{"type":"function","name":"priceOracle","inputs":[],"outputs":[{"name":"","type":"address","internalType":"contract AggregatorV3Interface"}],"stateMutability":"view"},{"type":"function","name":"protectedAsset","inputs":[],"outputs":[{"name":"","type":"address","internalType":"contract IERC20"}],"stateMutability":"view"},{"type":"function","name":"proxiableUUID","inputs":[],"outputs":[{"name":"","type":"bytes32","internalType":"bytes32"}],"stateMutability":"view"},{"type":"function","name":"renounceOwnership","inputs":[],"outputs":[],"stateMutability":"nonpayable"},{"type":"function","name":"safeAsset","inputs":[],"outputs":[{"name":"","type":"address","internalType":"contract IERC20"}],"stateMutability":"view"},{"type":"function","name":"safeAssetPriceOracle","inputs":[],"outputs":[{"name":"","type":"address","internalType":"contract AggregatorV3Interface"}],"stateMutability":"view"},{"type":"function","name":"setSafeAsset","inputs":[{"name":"newSafeAsset","type":"address","internalType":"address"}],"outputs":[],"stateMutability":"nonpayable"},{"type":"function","name":"setTrustedForwarder","inputs":[{"name":"newTrustedForwarder","type":"address","internalType":"address"}],"outputs":[],"stateMutability":"nonpayable"},{"type":"function","name":"symbol","inputs":[],"outputs":[{"name":"","type":"string","internalType":"string"}],"stateMutability":"view"},{"type":"function","name":"totalSupply","inputs":[],"outputs":[{"name":"","type":"uint256","internalType":"uint256"}],"stateMutability":"view"},{"type":"function","name":"transfer","inputs":[{"name":"to","type":"address","internalType":"address"},{"name":"value","type":"uint256","internalType":"uint256"}],"outputs":[{"name":"","type":"bool","internalType":"bool"}],"stateMutability":"nonpayable"},{"type":"function","name":"transferFrom","inputs":[{"name":"from","type":"address","internalType":"address"},{"name":"to","type":"address","internalType":"address"},{"name":"value","type":"uint256","internalType":"uint256"}],"outputs":[{"name":"","type":"bool","internalType":"bool"}],"stateMutability":"nonpayable"},{"type":"function","name":"transferOwnership","inputs":[{"name":"newOwner","type":"address","internalType":"address"}],"outputs":[],"stateMutability":"nonpayable"},{"type":"function","name":"transferWithPermit","inputs":[{"name":"owner","type":"address","internalType":"address"},{"name":"spender","type":"address","internalType":"address"},{"name":"value","type":"uint256","internalType":"uint256"},{"name":"deadline","type":"uint256","internalType":"uint256"},{"name":"v","type":"uint8","internalType":"uint8"},{"name":"r","type":"bytes32","internalType":"bytes32"},{"name":"s","type":"bytes32","internalType":"bytes32"}],"outputs":[{"name":"","type":"bool","internalType":"bool"}],"stateMutability":"nonpayable"},{"type":"function","name":"trustedForwarder","inputs":[],"outputs":[{"name":"","type":"address","internalType":"address"}],"stateMutability":"view"},{"type":"function","name":"upgradeToAndCall","inputs":[{"name":"newImplementation","type":"address","internalType":"address"},{"name":"data","type":"bytes","internalType":"bytes"}],"outputs":[],"stateMutability":"payable"},{"type":"function","name":"version","inputs":[],"outputs":[{"name":"","type":"string","internalType":"string"}],"stateMutability":"pure"},{"type":"event","name":"Approval","inputs":[{"name":"owner","type":"address","indexed":true,"internalType":"address"},{"name":"spender","type":"address","indexed":true,"internalType":"address"},{"name":"value","type":"uint256","indexed":false,"internalType":"uint256"}],"anonymous":false},{"type":"event","name":"AssetsEvacuated","inputs":[{"name":"amountIn","type":"uint256","indexed":false,"internalType":"uint256"},{"name":"amountOut","type":"uint256","indexed":false,"internalType":"uint256"}],"anonymous":false},{"type":"event","name":"Donation","inputs":[{"name":"account","type":"address","indexed":true,"internalType":"address"},{"name":"amount","type":"uint256","indexed":true,"internalType":"uint256"}],"anonymous":false},{"type":"event","name":"EIP712DomainChanged","inputs":[],"anonymous":false},{"type":"event","name":"EthConverted","inputs":[{"name":"ethAmount","type":"uint256","indexed":false,"internalType":"uint256"},{"name":"protectedAssetAmount","type":"uint256","indexed":false,"internalType":"uint256"}],"anonymous":false},{"type":"event","name":"Help","inputs":[{"name":"accountTo","type":"address","indexed":true,"internalType":"address"},{"name":"amount","type":"uint256","indexed":true,"internalType":"uint256"}],"anonymous":false},{"type":"event","name":"Initialized","inputs":[{"name":"version","type":"uint64","indexed":false,"internalType":"uint64"}],"anonymous":false},{"type":"event","name":"OwnershipTransferred","inputs":[{"name":"previousOwner","type":"address","indexed":true,"internalType":"address"},{"name":"newOwner","type":"address","indexed":true,"internalType":"address"}],"anonymous":false},{"type":"event","name":"ProtectedAssetRotated","inputs":[{"name":"oldProtectedAsset","type":"address","indexed":true,"internalType":"address"},{"name":"newProtectedAsset","type":"address","indexed":true,"internalType":"address"}],"anonymous":false},{"type":"event","name":"SafeAssetChanged","inputs":[{"name":"newSafeAsset","type":"address","indexed":true,"internalType":"address"}],"anonymous":false},{"type":"event","name":"Transfer","inputs":[{"name":"from","type":"address","indexed":true,"internalType":"address"},{"name":"to","type":"address","indexed":true,"internalType":"address"},{"name":"value","type":"uint256","indexed":false,"internalType":"uint256"}],"anonymous":false},{"type":"event","name":"TrustedForwarderChanged","inputs":[{"name":"newTrustedForwarder","type":"address","indexed":true,"internalType":"address"}],"anonymous":false},{"type":"event","name":"Upgraded","inputs":[{"name":"implementation","type":"address","indexed":true,"internalType":"address"}],"anonymous":false},{"type":"error","name":"AddressEmptyCode","inputs":[{"name":"target","type":"address","internalType":"address"}]},{"type":"error","name":"ECDSAInvalidSignature","inputs":[]},{"type":"error","name":"ECDSAInvalidSignatureLength","inputs":[{"name":"length","type":"uint256","internalType":"uint256"}]},{"type":"error","name":"ECDSAInvalidSignatureS","inputs":[{"name":"s","type":"bytes32","internalType":"bytes32"}]},{"type":"error","name":"ERC1967InvalidImplementation","inputs":[{"name":"implementation","type":"address","internalType":"address"}]},{"type":"error","name":"ERC1967NonPayable","inputs":[]},{"type":"error","name":"ERC20InsufficientAllowance","inputs":[{"name":"spender","type":"address","internalType":"address"},{"name":"allowance","type":"uint256","internalType":"uint256"},{"name":"needed","type":"uint256","internalType":"uint256"}]},{"type":"error","name":"ERC20InsufficientBalance","inputs":[{"name":"sender","type":"address","internalType":"address"},{"name":"balance","type":"uint256","internalType":"uint256"},{"name":"needed","type":"uint256","internalType":"uint256"}]},{"type":"error","name":"ERC20InvalidApprover","inputs":[{"name":"approver","type":"address","internalType":"address"}]},{"type":"error","name":"ERC20InvalidReceiver","inputs":[{"name":"receiver","type":"address","internalType":"address"}]},{"type":"error","name":"ERC20InvalidSender","inputs":[{"name":"sender","type":"address","internalType":"address"}]},{"type":"error","name":"ERC20InvalidSpender","inputs":[{"name":"spender","type":"address","internalType":"address"}]},{"type":"error","name":"ERC2612ExpiredSignature","inputs":[{"name":"deadline","type":"uint256","internalType":"uint256"}]},{"type":"error","name":"ERC2612InvalidSigner","inputs":[{"name":"signer","type":"address","internalType":"address"},{"name":"owner","type":"address","internalType":"address"}]},{"type":"error","name":"EvacuationInProgress","inputs":[]},{"type":"error","name":"FailedCall","inputs":[]},{"type":"error","name":"FlashloanFailed","inputs":[]},{"type":"error","name":"InvalidAccountNonce","inputs":[{"name":"account","type":"address","internalType":"address"},{"name":"currentNonce","type":"uint256","internalType":"uint256"}]},{"type":"error","name":"InvalidInitialization","inputs":[]},{"type":"error","name":"NoEthToConvert","inputs":[]},{"type":"error","name":"NotInitializing","inputs":[]},{"type":"error","name":"NullDonation","inputs":[{"name":"account","type":"address","internalType":"address"}]},{"type":"error","name":"OwnableInvalidOwner","inputs":[{"name":"owner","type":"address","internalType":"address"}]},{"type":"error","name":"OwnableUnauthorizedAccount","inputs":[{"name":"account","type":"address","internalType":"address"}]},{"type":"error","name":"PriceIsStable","inputs":[]},{"type":"error","name":"SwapFailed","inputs":[]},{"type":"error","name":"UUPSUnauthorizedCallContext","inputs":[]},{"type":"error","name":"UUPSUnsupportedProxiableUUID","inputs":[{"name":"slot","type":"bytes32","internalType":"bytes32"}]}],"bytecode":{"object":"0x60a0806040523460295730608052612f7c908161002e823960805181818161156901526115fc0152f35b5f80fdfe608080604052600436101561001c575b50361561001a575f80fd5b005b5f905f3560e01c90816306251772146122885750806306fdde03146121a6578063095ea7b31461217957806318160ddd1461213d5780631b11d0ff14611d2e57806321dc5dbf1461191857806323b872dd146118e85780632630c12f146118bf57806328f40f4b146118965780632ea2da4e1461182e578063313ce567146118125780633644e515146117ef5780633d4912c3146117d15780634f1ef286146115bd57806352d1902d1461155657806354fd4d501461150f578063572b6c05146114d4578063605629d61461149d5780636ceb61231461147457806370a082311461142f578063715018a6146113c657806371f2ed431461139d5780637da0a877146113705780637ecebe001461131957806384b0196e146110415780638da5cb5b1461100c5780638edeb15d14610edd57806395d89b4114610de2578063a03e4bc314610dbb578063a9059cbb14610d82578063ac3af20814610d59578063ad3cb1cc14610d0c578063bfb85cdd14610ba3578063d505accf14610b85578063da74222814610b60578063dd62ed3e14610b18578063e01bcd85146101f55763f2fde38b0361000f57346101f25760203660031901126101f2576101ef6101e26122cb565b6101ea612841565b61274d565b80f35b80fd5b50346101f2576101603660031901126101f2576004356001600160401b038111610b145761022790369060040161238a565b6024356001600160401b038111610b105761024690369060040161238a565b604435916001600160a01b0383168303610b0c576102626122e1565b926084356001600160a01b03811690819003610b085760a4356001600160a01b03811690819003610b045760c4356001600160a01b0381169290839003610b005760e4356001600160a01b0381169490859003610afc57610104356001600160a01b0381169690879003610af857610124356001600160a01b0381169890899003610af4575f516020612f275f395f51905f52549960ff8b60401c16159a6001600160401b03811680159081610aec575b6001149081610ae2575b159081610ad9575b50610aca5767ffffffffffffffff1981166001175f516020612f275f395f51905f525561036191908c610a9e575b5061035c612b88565b612978565b610369612b88565b610371612b88565b81516001600160401b03811161088d576103985f516020612e475f395f51905f5254612422565b601f8111610a2a575b508060208d601f83116001146109b057916109a5575b508160011b915f199060031b1c1916175f516020612e475f395f51905f52555b8051906001600160401b03821161088d5781906104015f516020612ea75f395f51905f5254612422565b601f8111610928575b506020908d601f84116001146108ac57926108a1575b50508160011b915f199060031b1c1916175f516020612ea75f395f51905f52555b610449612b88565b6040519061045860408361233a565b60018252603160f81b602083015261046e612b88565b8051906001600160401b03821161088d5781906104985f516020612e875f395f51905f5254612422565b601f8111610810575b506020908d601f84116001146107945792610789575b50508160011b915f199060031b1c1916175f516020612e875f395f51905f52555b8051906001600160401b038211610775576105005f516020612ee75f395f51905f5254612422565b601f8111610706575b50602090601f83116001146106865761059d9392918c918361067b575b50508160011b915f199060031b1c1916175f516020612ee75f395f51905f52555b897fa16a46d94261c7517cc8ff89f61c0ce93598e3c849801011dee649a6a557d10055897fa16a46d94261c7517cc8ff89f61c0ce93598e3c849801011dee649a6a557d10155610595612b88565b6101ea612b88565b6105a5612b88565b6001600160601b0360a01b8854161787556001600160601b0360a01b60015416176001556001600160601b0360a01b60025416176002556001600160601b0360a01b60045416176004556001600160601b0360a01b60035416176003556001600160601b0360a01b6005541617600555610144356006556106235780f35b68ff0000000000000000195f516020612f275f395f51905f5254165f516020612f275f395f51905f52557fc7f505b2f371ae2175ee4913f4499e1f2633a7b5936321eed1cdaeb6115181d2602060405160018152a180f35b015190505f80610526565b5f516020612ee75f395f51905f528c52818c209190601f1984168d5b8181106106ee575091600193918561059d979694106106d6575b505050811b015f516020612ee75f395f51905f5255610547565b01515f1960f88460031b161c191690555f80806106bc565b929360206001819287860151815501950193016106a2565b5f516020612ee75f395f51905f528c527f5f9ce34815f8e11431c7bb75a8e6886a91478f7ffc1dbb0a98dc240fddd76b75601f840160051c8101916020851061076b575b601f0160051c01905b8181106107605750610509565b8c8155600101610753565b909150819061074a565b634e487b7160e01b8b52604160045260248bfd5b015190505f806104b7565b5f516020612e875f395f51905f5281528281209350601f198516905b8181106107f857509084600195949392106107e0575b505050811b015f516020612e875f395f51905f52556104d8565b01515f1960f88460031b161c191690555f80806107c6565b929360206001819287860151815501950193016107b0565b5f516020612e875f395f51905f528e529091507f42ad5d3e1f2e6e70edcf6d991b8a3023d3fca8047a131592f9edb9fd9b89d57d601f840160051c81019160208510610883575b849392918f91601f0160051c0191905b8282106108755750506104a1565b81558493506001018e610867565b9091508190610857565b634e487b7160e01b8c52604160045260248cfd5b015190505f80610420565b5f516020612ea75f395f51905f5281528281209350601f198516905b81811061091057509084600195949392106108f8575b505050811b015f516020612ea75f395f51905f5255610441565b01515f1960f88460031b161c191690555f80806108de565b929360206001819287860151815501950193016108c8565b5f516020612ea75f395f51905f528e529091507f46a2803e59a4de4e7a4c574b1243f25977ac4c77d5a1a4a609b5394cebb4a2aa601f840160051c8101916020851061099b575b849392918f91601f0160051c0191905b82821061098d57505061040a565b81558493506001018e61097f565b909150819061096f565b90508301515f6103b7565b5f516020612e475f395f51905f5281528181209250601f198416905b818110610a12575090836001949392106109fa575b5050811b015f516020612e475f395f51905f52556103d7565b8501515f1960f88460031b161c191690555f806109e1565b9192602060018192868a0151815501940192016109cc565b5f516020612e475f395f51905f528d527f2ae08a8e29253f69ac5d979a101956ab8f8d9d7ded63fa7a83b16fc47648eab0601f830160051c81019160208410610a94575b601f0160051c01908d905b828110610a875750506103a1565b6001918155018d90610a79565b9091508190610a6e565b68ffffffffffffffffff191668010000000000000001175f516020612f275f395f51905f52555f610353565b63f92ee8a960e01b8d5260048dfd5b9050155f610325565b303b15915061031d565b8d9150610313565b8a80fd5b8980fd5b8880fd5b8780fd5b8680fd5b8580fd5b8380fd5b8280fd5b5080fd5b50346101f25760403660031901126101f257610b326122cb565b610b43610b3d6122f7565b916125e4565b9060018060a01b03165f52602052602060405f2054604051908152f35b50346101f25760203660031901126101f2576101ef610b7d6122cb565b61035c612841565b50346101f2576101ef610b97366123ce565b9594909493919361261c565b50346101f25760403660031901126101f2576004356001600160401b038111610b1457610bd490369060040161230d565b90610bdd612841565b47918215610cfd57610c569160209160018060a01b0360015416908560018060a01b0360045416604051968795869485936304a0d80360e31b855273eeeeeeeeeeeeeeeeeeeeeeeeeeeeeeeeeeeeeeee60048601526024850152846044850152602435606485015260a0608485015260a48401916124e6565b03925af1908115610cf2578391610c9c575b507f3118156f830484d81e284626921bedbd590581f12fdb16fc4dfaf99837c547fa9160409182519182526020820152a180f35b90506020813d602011610cea575b81610cb76020938361233a565b81010312610ce657517f3118156f830484d81e284626921bedbd590581f12fdb16fc4dfaf99837c547fa610c68565b5f80fd5b3d9150610caa565b6040513d85823e3d90fd5b63eb75820760e01b8452600484fd5b50346101f257806003193601126101f25750610d55604051610d2f60408261233a565b60058152640352e302e360dc1b60208201526040519182916020835260208301906122a7565b0390f35b50346101f257806003193601126101f2576001546040516001600160a01b039091168152602090f35b50346101f25760403660031901126101f257610db0610d9f6122cb565b60243590610dab6127be565b612894565b602060405160018152f35b50346101f257806003193601126101f257546040516001600160a01b039091168152602090f35b50346101f257806003193601126101f25760405190805f516020612ea75f395f51905f525490610e1182612422565b8085529160018116908115610eb65750600114610e4d575b610d5584610e398186038261233a565b6040519182916020835260208301906122a7565b5f516020612ea75f395f51905f5281527f46a2803e59a4de4e7a4c574b1243f25977ac4c77d5a1a4a609b5394cebb4a2aa939250905b808210610e9c57509091508101602001610e3982610e29565b919260018160209254838588010152019101909291610e83565b60ff191660208087019190915292151560051b85019092019250610e399150839050610e29565b50806003193601126101f2573415610fe9576001600160a01b03610eff6127be565b168015610fd557610f31347f52c63247e1f47db19d5ce0460030c497f067ca4cebf71ba98eeadabe20bace02546124ae565b7f52c63247e1f47db19d5ce0460030c497f067ca4cebf71ba98eeadabe20bace02558082525f516020612e675f395f51905f5260205260408220348154019055817fddf252ad1be2c89b69c2b068fc378daa952ba7f163c4a11628f55a4df523b3ef6020604051348152a3346001600160a01b03610fad6127be565b167f5d8bc849764969eb1bcc6d0a2f55999d0167c1ccec240a4f39cf664ca9c4148e8380a380f35b63ec442f0560e01b82526004829052602482fd5b602490610ff46127be565b6393c471d960e01b82526001600160a01b0316600452fd5b50346101f257806003193601126101f2575f516020612ec75f395f51905f52546040516001600160a01b039091168152602090f35b50346101f257806003193601126101f2577fa16a46d94261c7517cc8ff89f61c0ce93598e3c849801011dee649a6a557d1005415806112f0575b156112b3576040519080825f516020612e875f395f51905f52549161109f83612422565b8083529260018116908115611294575060011461122a575b6110c39250038361233a565b6040519080825f516020612ee75f395f51905f5254916110e283612422565b808352926001811690811561120b57506001146111a1575b61110e91939250936111459594038361233a565b602061115360405193611121838661233a565b8385525f368137604051968796600f60f81b885260e08589015260e08801906122a7565b9086820360408801526122a7565b904660608601523060808601528260a086015284820360c08601528080855193848152019401925b82811061118a57505050500390f35b83518552869550938101939281019260010161117b565b505f516020612ee75f395f51905f5283529082907f5f9ce34815f8e11431c7bb75a8e6886a91478f7ffc1dbb0a98dc240fddd76b755b8183106111ef57505090602061110e928201016110fa565b60209193508060019154838589010152019101909184926111d7565b6020925061110e94915060ff191682840152151560051b8201016110fa565b505f516020612e875f395f51905f5283529082907f42ad5d3e1f2e6e70edcf6d991b8a3023d3fca8047a131592f9edb9fd9b89d57d5b8183106112785750509060206110c3928201016110b7565b6020919350806001915483858901015201910190918492611260565b602092506110c394915060ff191682840152151560051b8201016110b7565b60405162461bcd60e51b81526020600482015260156024820152741152540dcc4c8e88155b9a5b9a5d1a585b1a5e9959605a1b6044820152606490fd5b507fa16a46d94261c7517cc8ff89f61c0ce93598e3c849801011dee649a6a557d101541561107b565b50346101f25760203660031901126101f25760406020916113386122cb565b6001600160a01b031681527f5ab42ced628888259c08ac98db1eb0cf702fc1501344311d8b100cd1bfe4bb0083522054604051908152f35b50346101f257806003193601126101f25760075460405160089190911c6001600160a01b03168152602090f35b50346101f257806003193601126101f2576003546040516001600160a01b039091168152602090f35b50346101f257806003193601126101f2576113df612841565b5f516020612ec75f395f51905f5280546001600160a01b0319811690915581906001600160a01b03167f8be0079c531659141344cd1fd0a4f28419497f9722a3daafe3b4186f6b6457e08280a380f35b50346101f25760203660031901126101f2576020906040906001600160a01b036114576122cb565b1681525f516020612e675f395f51905f5283522054604051908152f35b50346101f257806003193601126101f2576005546040516001600160a01b039091168152602090f35b50346101f25760206114ca6114c56114b4366123ce565b92848688979899969994939461261c565b612506565b6040519015158152f35b50346101f25760203660031901126101f25760206114f06122cb565b6007546040516001600160a01b0392831660089290921c909216148152f35b50346101f257806003193601126101f25750610d5560405161153260408261233a565b600381526218171960e91b60208201526040519182916020835260208301906122a7565b50346101f257806003193601126101f2577f00000000000000000000000000000000000000000000000000000000000000006001600160a01b031630036115ae5760206040515f516020612f075f395f51905f528152f35b63703e46dd60e11b8152600490fd5b5060403660031901126101f2576115d26122cb565b906024356001600160401b038111610b14576115f290369060040161238a565b6001600160a01b037f0000000000000000000000000000000000000000000000000000000000000000163081149081156117af575b506117a057611634612841565b6040516352d1902d60e01b8152926001600160a01b0381169190602085600481865afa80958596611768575b5061167957634c9c8ce360e01b84526004839052602484fd5b9091845f516020612f075f395f51905f5281036117565750813b15611744575f516020612f075f395f51905f5280546001600160a01b031916821790557fbc7cd75a20ee27fd9adebab32041f755214dbc6bffa90cc0225b39da2e5c2d3b8480a2815183901561172a578083602061171e95519101845af43d15611722573d916117028361236f565b92611710604051948561233a565b83523d85602085013e612de8565b5080f35b606091612de8565b505050346117355780f35b63b398979f60e01b8152600490fd5b634c9c8ce360e01b8452600452602483fd5b632a87526960e21b8552600452602484fd5b9095506020813d602011611798575b816117846020938361233a565b810103126117945751945f611660565b8480fd5b3d9150611777565b63703e46dd60e11b8252600482fd5b5f516020612f075f395f51905f52546001600160a01b0316141590505f611627565b50346101f257806003193601126101f2576020600654604051908152f35b50346101f257806003193601126101f257602061180a612a2b565b604051908152f35b50346101f257806003193601126101f257602060405160128152f35b50346101f25760203660031901126101f2576118486122cb565b611850612841565b600580546001600160a01b0319166001600160a01b039290921691821790557fa8613c90e433ae22cb1285f605dbb6c38749db1c57c595f817cf764660d6552d8280a280f35b50346101f257806003193601126101f2576004546040516001600160a01b039091168152602090f35b50346101f257806003193601126101f2576002546040516001600160a01b039091168152602090f35b50346101f25760603660031901126101f25760206114ca6119076122cb565b61190f6122f7565b60443591612506565b5034610ce65760c0366003190112610ce6576004356001600160401b038111610ce65761194990369060040161230d565b6024356001600160401b038111610ce65761196890369060040161230d565b604435939160a43591611979612841565b6007549360ff8516611d1f57600254604051633fabe5a360e21b81529060a090829060049082906001600160a01b03165afa908115611aeb575f91611cd2575b506006541115611cc357600160249560ff191617600755602060018060a01b0360045416604051968780926370a0823160e01b82523060048301525afa948515611aeb575f95611c8f575b508415611c80578615611af65791611a4d91611a3b611a71969594604051988997602089015260c0604089015260e08801916124e6565b858103601f19016060870152916124e6565b90606435608084015260843560a084015260c083015203601f19810183528261233a565b5f546005546001600160a01b03908116929116803b15610ce657611ac7935f8094604051968795869485936310ac2ddf60e21b85523060048601526024850152604484015260a0606484015260a48301906122a7565b82608483015203925af18015611aeb57611adf575080f35b61001a91505f9061233a565b6040513d5f823e3d90fd5b506004805460015460405163095ea7b360e01b81526001600160a01b03918216938101939093526024830187905295975091955093602091859160449183915f91165af1928315611aeb57602093611c55575b5060018060a01b0360015416905f60018060a01b0360045416611bab60018060a01b036005541693604051988997889687956304a0d80360e31b8752600487015260248601528b6044860152606485015260a0608485015260a48401916124e6565b03925af1908115611aeb575f91611c03575b507f0b3ac1d74721f90e0201bd1b837529b8ad867fd2d1a69d46c7cabd2affa51dab9160409182519182526020820152a1611bf66127e6565b60ff196007541660075580f35b90506020813d602011611c4d575b81611c1e6020938361233a565b81010312610ce657517f0b3ac1d74721f90e0201bd1b837529b8ad867fd2d1a69d46c7cabd2affa51dab611bbd565b3d9150611c11565b611c7490843d8611611c79575b611c6c818361233a565b81019061245a565b611b49565b503d611c62565b50505050505050611bf66127e6565b9094506020813d602011611cbb575b81611cab6020938361233a565b81010312610ce65751935f611a04565b3d9150611c9e565b637b9d16bd60e01b5f5260045ffd5b905060a0813d60a011611d17575b81611ced60a0938361233a565b81010312610ce657611cfe816124cf565b50611d106080602083015192016124cf565b505f6119b9565b3d9150611ce0565b632ade474d60e01b5f5260045ffd5b34610ce65760a0366003190112610ce657611d476122cb565b602435611d526122e1565b916084356001600160401b038111610ce657611d7290369060040161230d565b909360018060a01b035f5416331490811591612129575b5061211a5783019160c084840312610ce65760208401356001600160401b038111610ce65783611dba91860161238a565b9260408501356001600160401b038111610ce657611e1d91611ddd91870161238a565b60015460405163095ea7b360e01b81526001600160a01b039182166004820152602481018590529195908516949192909190602090849081906044820190565b03815f895af1918215611aeb5784936020936120ff575b5060605f89611e7460018060a01b03600154169460018060a01b036004541696604051998a98899788966304a0d80360e31b885201359260048701612472565b03925af18015611aeb576120d0575b50600480546040516370a0823160e01b815230928101929092529093906001600160a01b0316602085602481845afa948515611aeb575f95612099575b5060015460405163095ea7b360e01b81526001600160a01b039091166004820152602481018690529190602090839060449082905f905af1918215611aeb5760209261207e575b5060018060a01b036001541660805f88611f5260018060a01b03600454169560018060a01b0360055416966040519b8c98899788966304a0d80360e31b885201359260048701612472565b03925af1928315611aeb575f9361204a575b5060a084013583111561203b57611f7e90604435906124ae565b9081831061203b577f0b3ac1d74721f90e0201bd1b837529b8ad867fd2d1a69d46c7cabd2affa51dab6040611ff29560209582519135825286820152a15f805460405163095ea7b360e01b81526001600160a01b039091166004820152602481019390935291938492839182906044820190565b03925af18015611aeb5761201e575b6120096127e6565b60ff1960075416600755602060405160018152f35b6120369060203d602011611c7957611c6c818361233a565b612001565b63081ceff360e41b5f5260045ffd5b9092506020813d602011612076575b816120666020938361233a565b81010312610ce657519184611f64565b3d9150612059565b61209490833d8511611c7957611c6c818361233a565b611f07565b919094506020823d6020116120c8575b816120b66020938361233a565b81010312610ce6579051936020611ec0565b3d91506120a9565b6020813d6020116120f7575b816120e96020938361233a565b81010312610ce65751611e83565b3d91506120dc565b61211590843d8611611c7957611c6c818361233a565b611e34565b6301fabd5b60e71b5f5260045ffd5b6001600160a01b0316301415905085611d89565b34610ce6575f366003190112610ce65760207f52c63247e1f47db19d5ce0460030c497f067ca4cebf71ba98eeadabe20bace0254604051908152f35b34610ce6576040366003190112610ce657610db06121956122cb565b602435906121a16127be565b6129c8565b34610ce6575f366003190112610ce6576040515f5f516020612e475f395f51905f52546121d281612422565b808452906001811690811561226457506001146121fa575b610d5583610e398185038261233a565b5f516020612e475f395f51905f525f9081527f2ae08a8e29253f69ac5d979a101956ab8f8d9d7ded63fa7a83b16fc47648eab0939250905b80821061224a57509091508101602001610e396121ea565b919260018160209254838588010152019101909291612232565b60ff191660208086019190915291151560051b84019091019150610e3990506121ea565b34610ce6575f366003190112610ce65760209060ff6007541615158152f35b805180835260209291819084018484015e5f828201840152601f01601f1916010190565b600435906001600160a01b0382168203610ce657565b606435906001600160a01b0382168203610ce657565b602435906001600160a01b0382168203610ce657565b9181601f84011215610ce6578235916001600160401b038311610ce65760208381860195010111610ce657565b90601f801991011681019081106001600160401b0382111761235b57604052565b634e487b7160e01b5f52604160045260245ffd5b6001600160401b03811161235b57601f01601f191660200190565b81601f82011215610ce6576020813591016123a48261236f565b926123b2604051948561233a565b82845282820111610ce657815f92602092838601378301015290565b60e0906003190112610ce6576004356001600160a01b0381168103610ce657906024356001600160a01b0381168103610ce65790604435906064359060843560ff81168103610ce6579060a4359060c43590565b90600182811c92168015612450575b602083101461243c57565b634e487b7160e01b5f52602260045260245ffd5b91607f1691612431565b90816020910312610ce657518015158103610ce65790565b6001600160a01b039182168152911660208201526040810191909152606081019190915260a0608082018190526124ab929101906122a7565b90565b919082018092116124bb57565b634e487b7160e01b5f52601160045260245ffd5b519069ffffffffffffffffffff82168203610ce657565b908060209392818452848401375f828201840152601f01601f1916010190565b91906125106127be565b9261251a816125e4565b60018060a01b0385165f5260205260405f20545f198110612546575b506125419350612894565b600190565b8381106125bb576001600160a01b038216156125a8576001600160a01b038516156125955761254194612578836125e4565b9060018060a01b03165f526020528360405f20910390555f612536565b634a1406b160e11b5f525f60045260245ffd5b63e602df0560e01b5f525f60045260245ffd5b637dc7a0d960e11b5f9081526001600160a01b0386166004526024919091526044849052606490fd5b6001600160a01b03165f9081527f52c63247e1f47db19d5ce0460030c497f067ca4cebf71ba98eeadabe20bace016020526040902090565b92969594919493909387421161273a57612705926126fc92604260018060a01b038716809b815f527f5ab42ced628888259c08ac98db1eb0cf702fc1501344311d8b100cd1bfe4bb0060205260405f20908154916001830190556040519160208301937f6e71edae12b1b97f4d1f60370fef10105fa2faae0126114a169c64845d6126c98552604084015260018060a01b038c1660608401528c608084015260a083015260c082015260c081526126d460e08261233a565b5190206126df612a2b565b906040519161190160f01b83526002830152602282015220612a92565b90929192612b14565b6001600160a01b031685810361272357506127219394506129c8565b565b85906325c0072360e11b5f5260045260245260445ffd5b8763313c898160e11b5f5260045260245ffd5b6001600160a01b031680156127ab575f516020612ec75f395f51905f5280546001600160a01b0319811683179091556001600160a01b03167f8be0079c531659141344cd1fd0a4f28419497f9722a3daafe3b4186f6b6457e05f80a3565b631e4fbdf760e01b5f525f60045260245ffd5b6007543360089190911c6001600160a01b0316036127e25736601319013560601c90565b3390565b600480546005546001600160a01b03198083166001600160a01b0392831690811790945560035460028054909216908316179055167f74d4239eeff1399e5f1346ca5bb663c48912dd659c68250eccf81620437f8c195f80a3565b5f516020612ec75f395f51905f52546001600160a01b03908116906128646127be565b160361286c57565b6128746127be565b63118cdaa760e01b5f9081526001600160a01b0391909116600452602490fd5b6001600160a01b0316908115612965576001600160a01b031691821561295257815f525f516020612e675f395f51905f5260205260405f205481811061293957817fddf252ad1be2c89b69c2b068fc378daa952ba7f163c4a11628f55a4df523b3ef92602092855f525f516020612e675f395f51905f5284520360405f2055845f525f516020612e675f395f51905f52825260405f20818154019055604051908152a3565b8263391434e360e21b5f5260045260245260445260645ffd5b63ec442f0560e01b5f525f60045260245ffd5b634b637e8f60e11b5f525f60045260245ffd5b60078054610100600160a81b031916600883901b610100600160a81b03161790556001600160a01b03167f871264f4293af7d2865ae7eae628b228f4991c57cb45b39c99f0b774ebe290185f80a2565b916001600160a01b0383169182156125a8576001600160a01b0316928315612595577f8c5be1e5ebec7d5bd14f71427d1e84f3dd0314c0f7b2291e5b200ac8c7c3b92591612a176020926125e4565b855f5282528060405f2055604051908152a3565b612a33612bb3565b612a3b612ce0565b6040519060208201927f8b73c3c69bb8fe3d512ecc4cf759cc79239f7b179b0ffacaa9a75d522b39400f8452604083015260608201524660808201523060a082015260a08152612a8c60c08261233a565b51902090565b91907f7fffffffffffffffffffffffffffffff5d576e7357a4501ddfe92f46681b20a08411612b09579160209360809260ff5f9560405194855216868401526040830152606082015282805260015afa15611aeb575f516001600160a01b03811615612aff57905f905f90565b505f906001905f90565b5050505f9160039190565b6004811015612b745780612b26575050565b60018103612b3d5763f645eedf60e01b5f5260045ffd5b60028103612b58575063fce698f760e01b5f5260045260245ffd5b600314612b625750565b6335e2f38360e21b5f5260045260245ffd5b634e487b7160e01b5f52602160045260245ffd5b60ff5f516020612f275f395f51905f525460401c1615612ba457565b631afcd79f60e31b5f5260045ffd5b6040515f516020612e875f395f51905f5254905f81612bd184612422565b9182825260208201946001811690815f14612cc45750600114612c59575b612bfb9250038261233a565b51908115612c07572090565b50507fa16a46d94261c7517cc8ff89f61c0ce93598e3c849801011dee649a6a557d100548015612c345790565b507fc5d2460186f7233c927e7db2dcc703c0e500b653ca82273b7bfad8045d85a47090565b505f516020612e875f395f51905f525f90815290917f42ad5d3e1f2e6e70edcf6d991b8a3023d3fca8047a131592f9edb9fd9b89d57d5b818310612ca8575050906020612bfb92820101612bef565b6020919350806001915483858801015201910190918392612c90565b60ff1916865250612bfb92151560051b82016020019050612bef565b6040515f516020612ee75f395f51905f5254905f81612cfe84612422565b9182825260208201946001811690815f14612dcc5750600114612d61575b612d289250038261233a565b51908115612d34572090565b50507fa16a46d94261c7517cc8ff89f61c0ce93598e3c849801011dee649a6a557d101548015612c345790565b505f516020612ee75f395f51905f525f90815290917f5f9ce34815f8e11431c7bb75a8e6886a91478f7ffc1dbb0a98dc240fddd76b755b818310612db0575050906020612d2892820101612d1c565b6020919350806001915483858801015201910190918392612d98565b60ff1916865250612d2892151560051b82016020019050612d1c565b90612e0c5750805115612dfd57602081519101fd5b63d6bda27560e01b5f5260045ffd5b81511580612e3d575b612e1d575090565b639996b31560e01b5f9081526001600160a01b0391909116600452602490fd5b50803b15612e1556fe52c63247e1f47db19d5ce0460030c497f067ca4cebf71ba98eeadabe20bace0352c63247e1f47db19d5ce0460030c497f067ca4cebf71ba98eeadabe20bace00a16a46d94261c7517cc8ff89f61c0ce93598e3c849801011dee649a6a557d10252c63247e1f47db19d5ce0460030c497f067ca4cebf71ba98eeadabe20bace049016d09d72d40fdae2fd8ceac6b6234c7706214fd39c1cd1e609a0528c199300a16a46d94261c7517cc8ff89f61c0ce93598e3c849801011dee649a6a557d103360894a13ba1a3210667c828492db98dca3e2076cc3735a920a3ca505d382bbcf0c57e16840df040f15088dc2f81fe391c3923bec73e23a9662efc9c229c6a00a26469706673582212203113f3b7962fe9142dd91bded96f12d7a2d770afbf0a288b14d0f858098547da64736f6c634300081b0033","linkReferences":{}},"methodIdentifiers":{"DOMAIN_SEPARATOR()":"3644e515","UPGRADE_INTERFACE_VERSION()":"ad3cb1cc","aavePool()":"a03e4bc3","allowance(address,address)":"dd62ed3e","approve(address,uint256)":"095ea7b3","balanceOf(address)":"70a08231","convertEthToProtectedAsset(bytes,uint256)":"bfb85cdd","decimals()":"313ce567","depegThreshold()":"3d4912c3","donation()":"8edeb15d","eip712Domain()":"84b0196e","evacuateIfDepegged(bytes,bytes,uint256,uint256,uint256,uint256)":"21dc5dbf","evacuating()":"06251772","executeOperation(address,uint256,uint256,address,bytes)":"1b11d0ff","initialize(string,string,address,address,address,address,address,address,address,address,uint256)":"e01bcd85","isTrustedForwarder(address)":"572b6c05","name()":"06fdde03","nonces(address)":"7ecebe00","oneInchRouter()":"ac3af208","owner()":"8da5cb5b","permit(address,address,uint256,uint256,uint8,bytes32,bytes32)":"d505accf","priceOracle()":"2630c12f","protectedAsset()":"28f40f4b","proxiableUUID()":"52d1902d","renounceOwnership()":"715018a6","safeAsset()":"6ceb6123","safeAssetPriceOracle()":"71f2ed43","setSafeAsset(address)":"2ea2da4e","setTrustedForwarder(address)":"da742228","symbol()":"95d89b41","totalSupply()":"18160ddd","transfer(address,uint256)":"a9059cbb","transferFrom(address,address,uint256)":"23b872dd","transferOwnership(address)":"f2fde38b","transferWithPermit(address,address,uint256,uint256,uint8,bytes32,bytes32)":"605629d6","trustedForwarder()":"7da0a877","upgradeToAndCall(address,bytes)":"4f1ef286","version()":"54fd4d50"},"id":62}